:020000040800F2
:1000000070070020F901000845320008DD270008CC
:1000100041320008F1030008653B000800000000C1
:10002000000000000000000000000000F5320008A1
:10003000F503000800000000B53200084D33000849
:10004000130200081302000813020008130200083C
:10005000130200081302000813020008130200082C
:10006000130200081302000813020008130200081C
:10007000130200081302000813020008130200080C
:1000800013020008130200081302000813020008FC
:1000900013020008130200081302000813020008EC
:1000A00013020008130200081302000813020008DC
:1000B00013020008130200081302000813020008CC
:1000C00013020008130200081302000813020008BC
:1000D00013020008130200081302000813020008AC
:1000E000130200081302000813020008130200089C
:1000F000130200081302000813020008130200088C
:10010000130200081302000813020008130200087B
:10011000130200081302000813020008130200086B
:10012000130200081302000813020008130200085B
:1001300000F002F800F050F814A696E8000CB24463
:10014000B344DA4501D100F047F8BAE80F000FA632
:1001500096E83000A5EB040504EB0607AAEB0704BC
:10016000A7F101074FEA15154FEA3414A4F1010471
:10017000AC4201D300F030F813F0010F18BFFB1AA6
:1001800043F0010300F001F8DBE718476C4500007D
:100190008C450000103A24BF78C878C1FAD85207BD
:1001A00024BF30C830C144BF04680C6070470000F1
:1001B000704700000023002400250026103A28BFC5
:1001C00078C1FBD8520728BF30C148BF0B607047C9
:1001D0001FB51FBD10B510BD00F0CFF81146FFF7D9
:1001E000F7FF03F089FD00F0EDF803B4FFF7F2FF2D
:1001F00003BC00F0F5F800000948804709480047B3
:10020000FEE7FEE7FEE7FEE7FEE7FEE7FEE7FEE7C6
:10021000FEE7FEE704480549054A064B7047000023
:10022000CD33000831010008700100207007002064
:100230007003002070030020032A40F2308010F089
:10024000030C00F0158011F8013BBCF1020F624471
:1002500098BF11F801CB00F8013B38BF11F8013B02
:10026000A2F1040298BF00F801CB38BF00F8013BAF
:1002700011F0030300F04F80083AC0F0088051F8F5
:10028000043B083A51F804CBA0E80810F5E7121D2A
:100290005CBF51F8043B40F8043BAFF30080D20749
:1002A00024BF11F8013B11F801CB48BF11F8012B15
:1002B00024BF00F8013B00F801CB48BF00F8012B38
:1002C00070474FF0000200B5134694469646203919
:1002D00022BFA0E80C50A0E80C50B1F12001BFF4FF
:1002E000F7AF090728BFA0E80C5048BF0CC05DF865
:1002F00004EB890028BF40F8042B08BF704748BFB3
:1003000020F8022B11F0804F18BF00F8012B704726
:1003100070477047704710B5203AC0F00B80B1E8C5
:100320001850A0E81850B1E81850A0E81850203A2A
:10033000BFF4F5AF5FEA027C24BFB1E81850A0E833
:10034000185044BF18C918C0BDE810405FEA827C4D
:1003500024BF51F8043B40F8043B08BF7047D20764
:1003600028BF31F8023B48BF11F8012B28BF20F805
:10037000023B48BF00F8012B7047754600F02CF88F
:10038000AE4605006946534620F00700854618B082
:1003900020B5FFF73FFFBDE820404FF000064FF0CB
:1003A00000074FF000084FF0000BAC46ACE8C00966
:1003B000ACE8C009ACE8C009ACE8C00921F007010D
:1003C0008D46704710B50446AFF300802046BDE867
:1003D0001040FFF70ABF00000048704718000020D7
:1003E00001491820ABBEFEE726000200704700005E
:1003F000FFE7FEE77047000080B541F20000C4F25D
:1004000001008021012200F011FA80BD80B582B088
:10041000FFE741F20000C4F201004FF4006100F078
:10042000EDF9012801D0FFE7F3E70A20019000F081
:1004300017F841F20000C4F201004FF4805101228C
:1004400000F0F4F9019800F00BF802B080BD000054
:1004500081B0EFF3108072B60090FFE7FEE7000076
:1004600080B584B0039000F0F9F9029003980190F0
:100470000198013048B1FFE740F21100C2F20000DC
:100480000178019808440190FFE7FFE700F0E6F9E2
:100490000299401A0199884201D2FFE7F6E704B0B9
:1004A00080BD000092B01190109100200F900B9031
:1004B000FFE7109800680F99C840002800F09B8162
:1004C000FFE70F99012088400E90109800680E9960
:1004D00008400D900D980E99884240F08881FFE702
:1004E000109840680790002851D0FFE7079801282E
:1004F0003AD0FFE7079802283FD0FFE70798032884
:100500005FD0FFE70798112832D0FFE7079812283D
:1005100038D0FFE707980021C1F21101884236D098
:10052000FFE707980021C1F2120188422FD0FFE7B0
:1005300007980021C1F22101884228D0FFE70798DF
:100540000021C1F22201884221D0FFE70798002153
:10055000C1F2310188421AD0FFE707980021C1F2A9
:100560003201884213D02FE01098C0680B902CE025
:100570001098C06804300B9027E01098C0680830CD
:100580000B9022E01098C0680C300B901DE0109882
:10059000806818B9FFE704200B9011E0109880687C
:1005A000012806D1FFE708200B900E9811990861E9
:1005B00005E008200B900E9811994861FFE7FFE7CE
:1005C00003E000200B9000E0FFE70D98FF2803D820
:1005D000FFE71198069003E0119804300690FFE7BA
:1005E00006980A900D98FF2804D8FFE70F9880001E
:1005F000059006E00F996FF01F0000EB8100059059
:10060000FFE7059809900A980068099A0F21914020
:1006100088430B99914008430A9908601098C07963
:10062000C006002840F1E280FFE7FFE741F2180032
:10063000C4F20200016841F001010160006800F0AD
:10064000010008900898FFE70F9820F003000821A8
:10065000C4F2010140580C900F9800F00300810093
:100660000F2000FA01F10C9888430C90119840F685
:100670000001C4F20101884203D1FFE70020049089
:1006800042E0119840F60041C4F20101884203D1D2
:10069000FFE70120039034E0119841F20001C4F219
:1006A0000101884203D1FFE70220029026E0119861
:1006B00041F20041C4F20101884203D1FFE7032067
:1006C000019018E0119841F60001C4F2010188423E
:1006D00003D1FFE7042000900AE0119941F600429F
:1006E000C4F201020620914208BF05200090FFE7F6
:1006F00000980190FFE701980290FFE702980390AD
:10070000FFE703980490FFE704980F9901F00301B5
:10071000890000FA01F10C9808430C900C980F998D
:1007200021F003010822C4F2010288501098807958
:10073000C006002809D5FFE70D9A40F20841C4F22F
:10074000010108681043086008E00D9A40F2084172
:10075000C4F20101086890430860FFE710988079AF
:100760008006002809D5FFE70D9A40F20C41C4F23B
:10077000010108681043086008E00D9A40F20C413E
:10078000C4F20101086890430860FFE7109880797F
:100790008007002809D5FFE70D9A40F20441C4F212
:1007A000010108681043086008E00D9A40F2044116
:1007B000C4F20101086890430860FFE7109880794F
:1007C000C00748B1FFE70D9A40F20041C4F20101B1
:1007D00008681043086008E00D9A40F20041C4F236
:1007E0000101086890430860FFE7FFE7FFE70F9803
:1007F00001300F905DE612B07047000082B00190AA
:10080000ADF8021001988068BDF80210084204D0CB
:10081000FFE701208DF8010003E000208DF80100C2
:10082000FFE79DF8010002B07047000082B0019020
:10083000ADF802108DF801209DF8010028B1FFE706
:10084000BDF802000199086105E0BDF8020000044E
:1008500001990861FFE702B07047000040F26C1098
:10086000C2F200000068704780B58EB00C900C9802
:1008700020B9FFE701208DF8370043E10C9890F88C
:100880003D0040B9FFE70C99002081F83C000C982E
:1008900000F09EFCFFE70C99242081F83D000C98A5
:1008A0000168086820F0010008600C980168086879
:1008B00040F4004008600C980168086820F400408B
:1008C000086000F0A5FE0A900C98406848F2A0610C
:1008D000C0F2010188420BD8FFE70A9948F2804232
:1008E000C0F21E020020914238BF012009900AE0A8
:1008F0000A9940F60012C0F23D020020914238BF32
:1009000001200990FFE70998012804D1FFE70120A1
:100910008DF83700F6E00A984DF68361C4F21B317A
:10092000A0FB0110800C0B900C980068406820F030
:100930003F000B9908430C99096848600C980068BF
:10094000006A20F03F0008900C98406848F2A061CF
:10095000C0F20101884204D8FFE70B9801300790EC
:100960000EE00B984FF49671484344F6D351C1F210
:100970006201A0FB0101012000EB91100790FFE74D
:100980000898079908430C99096808620C98006850
:10099000C0694CF6FF71884306900C98406848F295
:1009A000A061C0F2010188421FD8FFE70A98013810
:1009B0000C9949684900B0FBF1F001306FF31F302A
:1009C000032803D8FFE7042005900BE00A980138BC
:1009D0000C9949684900B0FBF1F001306FF31F300A
:1009E0000590FFE7059804904CE00C98806868B982
:1009F000FFE70A9801380C99496801EB4101B0FB07
:100A0000F1F001306FF31F3003900DE00A980138C8
:100A10000C99496819225143B0FBF1F001300421CF
:100A200061F31F300390FFE70398000518B9FFE753
:100A30000120029023E00C98806868B9FFE70A98CB
:100A400001380C99496801EB4101B0FBF1F001302C
:100A50006FF31F3001900DE00A9801380C99496836
:100A600019225143B0FBF1F00130042161F31F3032
:100A70000190FFE7019840F400400290FFE70298E0
:100A80000490FFE70698049908430C990968C86127
:100A90000C980068006820F0C0000C9B1968DA69A7
:100AA0001B6A1A43104308600C980068806848F27B
:100AB000FF3188430C9A1168D36812691A431043B6
:100AC00088600C980068C06820F0FF000C9B1968D3
:100AD0005A699B691A431043C8600C9801680868FA
:100AE00040F0010008600C99002008640C9A202155
:100AF00082F83D100C9908630C9981F83E008DF83E
:100B00003700FFE79DF837000EB080BD80B590B08C
:100B1000DDF848C00A90ADF826100892ADF81E30F6
:100B200000200690FFF79AFE05900A9890F83D0085
:100B3000202840F04182FFE70A9805996A46116033
:100B40000221C0F210010122192302F031F820B174
:100B5000FFE702208DF82F0032E2FFE70A9890F8B5
:100B60003C00012804D1FFE702208DF82F0027E286
:100B70000A99012081F83C00FFE7FFE70A98006826
:100B80000068C00738B9FFE70A980168086840F0B4
:100B900001000860FFE70A980168086820F4006017
:100BA00008600A99222081F83D000A99102081F8F6
:100BB0003E000A990020086408980A994862BDF826
:100BC0001E000A9948850A98408D0A9908850A9955
:100BD0000020CFF6FF70C8620A98BDF82610129A5E
:100BE000059B01F02FFE20B1FFE701208DF82F00BB
:100BF000E6E10A98008DA0B9FFE7FFE70020049026
:100C00000A980068406904900A9800688069049016
:100C10000498FFE70A980168086840F400700860CB
:100C20005DE00A98008D01281FD1FFE70A9801684E
:100C3000086820F480600860EFF3108072B60F90AF
:100C4000FFE7002003900A980068406903900A9823
:100C50000068806903900398FFE70A9801680868B4
:100C600040F40070086062B638E00A98008D0228EF
:100C70001FD1FFE70A980168086840F40060086027
:100C8000EFF3108072B60E90FFE7002002900A98F2
:100C90000068406902900A98006880690290029892
:100CA000FFE70A980168086820F48060086062B66F
:100CB00013E00A980168086840F480600860FFE764
:100CC000002001900A980068406901900A98006825
:100CD000806901900198FFE7FFE7FFE7FFE7FFE783
:100CE0000A98008D002800F05581FFE70A98008DD2
:100CF000032800F20781FFE70A98008D01281ED122
:100D0000FFE70A981299059A02F080F820B1FFE7F0
:100D100001208DF82F0053E10A98006800690A99B4
:100D2000496A08700A99486A013048620A99088D30
:100D3000013808850A99488D01384885E1E00A980C
:100D4000008D022841D1FFE70A98129B05996A4657
:100D500011600421C0F20101002201F029FF20B13D
:100D6000FFE701208DF82F002AE1EFF3108072B623
:100D70000D900A980168086840F4007008600A98AD
:100D8000006800690A99496A08700A99486A01303E
:100D900048620A99088D013808850A99488D0138FA
:100DA000488562B60A98006800690A99496A08701D
:100DB0000A99486A013048620A99088D0138088505
:100DC0000A99488D013848859AE00A98129B05993E
:100DD0006A4611600421C0F20101002201F0E8FE20
:100DE00020B1FFE701208DF82F00E9E00A980168A3
:100DF000086820F480600860EFF3108072B60C90F1
:100E00000A98006800690A99496A08700A99486A4C
:100E1000013048620A99088D013808850A99488D81
:100E20000138488540F20000C2F20000006848F234
:100E30001F51C5F2EB11A0FB0110C00844F6D351BD
:100E4000C1F26201A0FB01108009232148430690F2
:100E5000FFE70698013806900698D0B9FFE70A998F
:100E6000002008630A9A202182F83D100A9981F82F
:100E70003E000A99086C40F02000086462B6FFE763
:100E80000A99002081F83C00FFE701208DF82F002F
:100E900096E0FFE70A980068406900F0040100202E
:100EA000B0EB910FD5D0FFE70A980168086840F4CD
:100EB000007008600A98006800690A99496A087019
:100EC0000A99486A013048620A99088D01380885F4
:100ED0000A99488D0138488562B60A980068006909
:100EE0000A99496A08700A99486A013048620A9961
:100EF000088D013808850A99488D01384885FFE733
:100F0000FFE746E00A981299059A01F07FFF20B1A9
:100F1000FFE701208DF82F0052E00A980068006971
:100F20000A99496A08700A99486A013048620A9920
:100F3000088D013808850A99488D013848850A9836
:100F40000068406900F004010120B0EB910F1FD14F
:100F5000FFE70A98008D032807D1FFE70A98016888
:100F6000086820F480600860FFE70A98006800695C
:100F70000A99496A08700A99486A013048620A99D0
:100F8000088D013808850A99488D01384885FFE7A2
:100F9000FFE7A5E60A99202081F83D000A99002084
:100FA00081F83E00FFE70A99002081F83C00FFE746
:100FB00000208DF82F0003E002208DF82F00FFE7BE
:100FC0009DF82F0010B080BD80B588B0DDF828C036
:100FD0000690ADF816100492ADF80E30FFF73EFC07
:100FE0000290069890F83D00202840F0E980FFE745
:100FF000069802996A4611600221C0F2100101228E
:10100000192301F0D5FD20B1FFE702208DF81F0064
:10101000DAE0FFE7069890F83C00012804D1FFE7EA
:1010200002208DF81F00CFE00699012081F83C00D6
:10103000FFE7FFE7069800680068C00738B9FFE7D8
:1010400006980168086840F001000860FFE706980C
:101050000168086820F4006008600699212081F882
:101060003D000699102081F83E0006990020086492
:10107000049806994862BDF80E00069948850698BE
:10108000408D0699088506990020CFF6FF70C8624A
:101090000698BDF816100A9A029B01F0A9FC20B12F
:1010A000FFE701208DF81F008EE0FFE70020019090
:1010B0000698006840690190069800688069019070
:1010C0000198FFE7FFE70698008D002860D0FFE752
:1010D00006980A99029A01F007FF80B1FFE7069887
:1010E000006C042807D1FFE706980168086840F4FF
:1010F00000700860FFE701208DF81F0064E006988B
:101100000168406A007808610699486A01304862BF
:101110000699488D013848850699088D013808855B
:1011200006980068406900F004010120B0EB910FBF
:1011300016D1FFE70698008D90B1FFE70698016889
:10114000406A007808610699486A01304862069949
:10115000488D013848850699088D01380885FFE7D4
:1011600006980A99029A01F0CDFC80B1FFE7069833
:10117000006C042807D1FFE706980168086840F46E
:1011800000700860FFE701208DF81F001CE09AE75F
:1011900006980168086840F40070086006992020ED
:1011A00081F83D000699002081F83E00FFE706998E
:1011B000002081F83C00FFE700208DF81F0003E0CD
:1011C00002208DF81F00FFE79DF81F0008B080BDCA
:1011D00080B588B007900020069005900490039099
:1011E0000798006845F20041C4F2000188422CD102
:1011F000FFE7FFE741F21800C4F20200016841F086
:1012000008010160006800F0080002900298FFE702
:10121000C0200390122004900320069040F6004066
:10122000C4F2010003A9FFF73DF9FFE741F21C00FA
:10123000C4F20200016841F400110160006800F48A
:10124000001001900198FFE7FFE708B080BD0000A3
:1012500040F21100C2F20000027840F26C11C2F2BA
:1012600000010868104408607047000080B542F231
:101270000001C4F20201086840F010000860032079
:1012800000F08CF80F2000F005F800F03BF800208B
:1012900080BD000080B582B0009040F20000C2F234
:1012A0000000006840F21101C2F200010A784FF418
:1012B0007A71B1FBF2F1B0FBF1F000F09FFD20B1CB
:1012C000FFE701208DF8070018E000980F280DD8DF
:1012D000FFE700994FF0FF30002200F045F800983A
:1012E00040F21401C2F20001086003E001208DF811
:1012F000070003E000208DF80700FFE79DF80700D6
:1013000002B080BD83B0FFE741F21800C4F20200D2
:10131000016841F001010160006800F001000290E5
:101320000298FFE7FFE741F21C00C4F202000168E7
:1013300041F080510160006800F0805001900198F8
:10134000FFE7FFE70421C4F201010868009000985C
:1013500020F0E0600090009840F00070009000984D
:101360000860FFE703B0704780B586B08DF81700BE
:10137000049103920020029002F0F6FB02909DF986
:101380001700019002980499039A01F05DFF01464D
:10139000019802F0F1FB06B080BD000080B582B07C
:1013A0000190019802F00AFC02B080BD80B584B0C3
:1013B00002900191029820B9FFE701208DF80F00FB
:1013C0001CE1019842F20001C4F20201096801F037
:1013D0000701884216D9FFE742F20000C4F202007A
:1013E000016821F00701019A11430160006800F0D3
:1013F00007000199884204D0FFE701208DF80F0013
:10140000FCE0FFE702980078800700282AD5FFE774
:10141000029800784007002809D5FFE741F204014F
:10142000C4F20201086840F4E0600860FFE7029837
:1014300000780007002809D5FFE741F20401C4F253
:101440000201086840F460500860FFE741F20401BF
:10145000C4F20201086820F0F000029A926810437A
:101460000860FFE702980078C007002860D0FFE717
:101470000298406801280ED1FFE741F20000C4F253
:10148000020000688003002804D4FFE701208DF8E3
:101490000F00B3E021E00298406802280ED1FFE778
:1014A00041F20000C4F2020000688001002804D468
:1014B000FFE701208DF80F00A0E00DE041F20000F1
:1014C000C4F2020000688007002804D4FFE701206E
:1014D0008DF80F0092E0FFE7FFE741F20401C4F24C
:1014E0000201086820F00300029A52681043086065
:1014F000FFF7B4F90090FFE741F20400C4F20200E4
:10150000006800F00C0002994968B0EB810F0ED022
:10151000FFE7FFF7A3F90099401A41F289318842A9
:1015200004D3FFE703208DF80F0067E0E4E7FFE74F
:10153000019842F20001C4F20201096801F00701BA
:10154000884216D2FFE742F20000C4F202000168AE
:1015500021F00701019A11430160006800F00700C3
:101560000199884204D0FFE701208DF80F0045E083
:10157000FFE702980078400700280CD5FFE741F20A
:101580000401C4F20201086820F4E060029AD26803
:1015900010430860FFE702980078000700280DD587
:1015A000FFE741F20401C4F20201086820F4605030
:1015B000029A126940EAC2000860FFE700F04CF8A6
:1015C00041F20401C4F202010968C9B20A0942F6F3
:1015D0006A71C0F200017944895CC84040F20001A0
:1015E000C2F20001086040F21400C2F2000000687C
:1015F000FFF750FE00208DF80F00FFE79DF80F0069
:1016000004B080BD40F20000C2F2000000687047E4
:1016100080B5FFF7F7FF41F20401C4F20201096847
:10162000C1F3022242F62471C0F200017944895CC0
:10163000C84080BD80B5FFF7E5FF41F20401C4F268
:1016400002010968C1F3C22242F60071C0F2000132
:101650007944895CC84080BD86B000200590049024
:1016600003900290019041F20400C4F2020000686D
:101670000590059800F00C0001460091002841D02B
:10168000FFE70098042804D0FFE70098082806D058
:1016900039E041F20020C0F27A00019039E005986B
:1016A000C0F3834142F6AC60C0F200007844405C75
:1016B00002909DF81600C007C8B1FFE741F2040090
:1016C000C4F202000068C0F3404142F69660C0F2E6
:1016D00000007844405C0490029841F20021C0F27E
:1016E0007A0148430499B0FBF1F0039007E00298B7
:1016F00040F60011C0F23D0148430390FFE7039814
:10170000019006E0FFE741F20020C0F27A0001906C
:10171000FFE7019806B0704780B588B00790069142
:101720000592002004900390029001900221029102
:101730000321049103904FF480700190FFE741F280
:101740001800C4F20200016841F004010160006861
:1017500000F0040000900098FFE740F60000C4F29B
:10176000010001A9FEF79EFE41F20401C4F202014C
:10177000086820F0E060069A1043086008B080BD59
:1017800080B586B00490049820B9FFE701208DF859
:1017900017002EE304980078C007002800F0AE8000
:1017A000FFE741F20400C4F20200006800F00C0000
:1017B000042813D0FFE741F20400C4F202000068DD
:1017C00000F00C0008281BD1FFE741F20400C4F22E
:1017D00002000068C003002812D5FFE741F20000B4
:1017E000C4F2020000688003002808D5FFE70498CF
:1017F000406820B9FFE701208DF81700F9E27CE08E
:10180000FFE704984068B0F5803F09D1FFE741F257
:101810000001C4F20201086840F48030086032E040
:101820000498406868B9FFE741F20001C4F2020180
:10183000086820F480300860086820F48020086080
:1018400020E004984068B0F5A02F0DD1FFE741F2E9
:101850000001C4F20201086840F4802008600868B2
:1018600040F4803008600CE041F20001C4F2020153
:10187000086820F480300860086820F48020086040
:10188000FFE7FFE7FFE7FFE704984068D0B1FFE715
:10189000FEF7E4FF0390FFE741F20000C4F202000C
:1018A0000068800300280CD4FFE7FEF7D7FF0399F8
:1018B000401A652804D3FFE703208DF8170098E24B
:1018C000EAE719E0FEF7CAFF0390FFE741F20000E4
:1018D000C4F202000068800300280CD5FFE7FEF781
:1018E000BDFF0399401A652804D3FFE703208DF854
:1018F00017007EE2EAE7FFE7FFE7FFE704980078DA
:101900008007002840F18D80FFE741F20400C4F217
:101910000200006810F00C0F13D0FFE741F2040042
:10192000C4F20200006800F00C00082829D1FFE78B
:1019300041F20400C4F202000068C003002820D471
:10194000FFE741F20000C4F20200006880070028AF
:1019500009D5FFE704980069012804D0FFE70120BA
:101960008DF8170045E241F20001C4F20201086857
:1019700020F0F800049A526940EAC2000860FFE7CC
:101980004EE00498006958B3FFE70021C4F24221F9
:1019900001200860FEF762FF0390FFE741F20000BC
:1019A000C4F202000068800700280CD4FFE7FEF7AD
:1019B00055FF0399401A032804D3FFE703208DF84D
:1019C000170016E2EAE741F20001C4F202010868DA
:1019D00020F0F800049A526940EAC20008601EE054
:1019E0000021C4F2422100200860FEF737FF039077
:1019F000FFE741F20000C4F20200006880070028FF
:101A00000CD5FFE7FEF72AFF0399401A032804D3F9
:101A1000FFE703208DF81700EBE1EAE7FFE7FFE7B8
:101A2000FFE7049800780007002848D5FFE70498EE
:101A3000806918B3FFE740F28041C4F242210120DF
:101A40000860FEF70BFF0390FFE741F22400C4F2A9
:101A500002000068800700280CD4FFE7FEF7FEFEB6
:101A60000399401A032804D3FFE703208DF81700D9
:101A7000BFE1EAE7012001F01FFC1FE040F28041D6
:101A8000C4F2422100200860FEF7E8FE0390FFE761
:101A900041F22400C4F202000068800700280CD53F
:101AA000FFE7FEF7DBFE0399401A032804D3FFE7A4
:101AB00003208DF817009CE1EAE7FFE7FFE70498B1
:101AC00000784007002840F1D880FFE700208DF81B
:101AD000070041F21C00C4F202000068C0000028A8
:101AE00013D4FFE7FFE741F21C00C4F202000168D3
:101AF00041F080510160006800F080500090009833
:101B0000FFE701208DF80700FFE747F20000C4F26D
:101B100000000068C005002822D4FFE747F200015A
:101B2000C4F20001086840F480700860FEF796FE79
:101B30000390FFE747F20000C4F200000068C00510
:101B400000280CD4FFE7FEF789FE0399401A6528A8
:101B500004D3FFE703208DF817004AE1EAE7FFE727
:101B6000FFE70498C068012809D1FFE741F220018E
:101B7000C4F20201086840F00100086031E00498F6
:101B8000C06868B9FFE741F22001C4F202010868A9
:101B900020F001000860086820F0040008601FE0E1
:101BA0000498C06805280DD1FFE741F22001C4F276
:101BB0000201086840F004000860086840F0010075
:101BC00008600CE041F22001C4F20201086820F034
:101BD00001000860086820F004000860FFE7FFE7E4
:101BE000FFE7FFE70498C068E0B1FFE7FEF736FEC5
:101BF0000390FFE741F22000C4F202000068800772
:101C000000280ED4FFE7FEF729FE0399401A41F29F
:101C10008931884204D3FFE703208DF81700E8E0FC
:101C2000E8E71BE0FEF71AFE0390FFE741F2200011
:101C3000C4F202000068800700280ED5FFE7FEF717
:101C40000DFE0399401A41F28931884204D3FFE71F
:101C500003208DF81700CCE0E8E7FFE79DF80700C8
:101C6000012809D1FFE741F21C01C4F20201086812
:101C700020F080500860FFE7FFE70498C069002863
:101C800000F0B380FFE741F20400C4F202000068F4
:101C900000F00C00082800F08280FFE70498C0697B
:101CA00002285CD1FFE76021C4F2422100200860D5
:101CB000FEF7D4FD0390FFE741F20000C4F20200FA
:101CC0000068800100280CD5FFE7FEF7C7FD0399E7
:101CD000401A032804D3FFE703208DF8170088E09B
:101CE000EAE70498006AB0F5803F0CD1FFE741F2C3
:101CF0000401C4F20201086820F40030049A9268DA
:101D000010430860FFE741F20401C4F202010868D1
:101D100020F47410049B1A6A5B6A1A43104308602B
:101D20006021C4F2422101200860FEF797FD039074
:101D3000FFE741F20000C4F20200006880010028C1
:101D40000CD4FFE7FEF78AFD0399401A032804D359
:101D5000FFE703208DF817004BE0EAE71EE0602163
:101D6000C4F2422100200860FEF778FD0390FFE7EF
:101D700041F20000C4F202000068800100280CD586
:101D8000FFE7FEF76BFD0399401A032804D3FFE732
:101D900003208DF817002CE0EAE7FFE724E0049821
:101DA000C069012804D1FFE701208DF8170020E069
:101DB00041F20400C4F2020000680290029800F4AC
:101DC00080300499096A884208D1FFE7029800F43C
:101DD00070100499496A884204D0FFE701208DF809
:101DE000170006E0FFE7FFE7FFE700208DF8170088
:101DF000FFE79DF8170006B080BD000080B582B0F7
:101E00000190019801F078FA02B080BD85B003908E
:101E10000291FFE7039890F83C00012804D1FFE706
:101E200002208DF813006DE00399012081F83C0039
:101E3000FFE7FFE70399022081F83D00039800685F
:101E4000406801900398006880680090019820F035
:101E50007000019002980168019808430190019870
:101E60000399096848600398006842F60041C4F28B
:101E7000010188422AD0FFE70398006843F200413D
:101E8000C4F20101884221D0FFE703980068B0F155
:101E9000804F1BD0FFE70398006840F20041C4F276
:101EA0000001884212D0FFE70398006840F6000165
:101EB000C4F20001884209D0FFE70398006840F6A9
:101EC0000041C4F2000188420ED1FFE7009820F0E3
:101ED00080000090029841680098084300900098A4
:101EE000039909688860FFE70399012081F83D00A4
:101EF000FFE70399002081F83C00FFE700208DF800
:101F00001300FFE79DF8130005B0704780B582B05D
:101F10000090009820B9FFE701208DF807003FE00E
:101F2000009890F83D0040B9FFE70099002081F843
:101F30003C00009800F038F8FFE70099022081F893
:101F40003D00009951F8040B01F042FA009901207C
:101F500081F84600FFE70099012081F83E000099D2
:101F600081F83F00009981F84000009981F8410014
:101F7000FFE7FFE70099012081F84200009981F80E
:101F80004300009981F84400009981F84500FFE77B
:101F90000099012081F83D0000208DF80700FFE73F
:101FA0009DF8070002B080BD82B0019001980068E2
:101FB00040F20041C4F20001884210D1FFE7FFE780
:101FC00041F21C00C4F20200016841F0020101600C
:101FD000006800F0020000900098FFE7FFE702B001
:101FE0007047000080B586B00490039100208DF802
:101FF0000B00FFE7049890F83C00012804D1FFE7AC
:1020000002208DF81700ABE00499012081F83C0014
:10201000FFE7FFE70499022081F83D00049800687B
:1020200080680190019820F077000190019820F4D9
:102030007F400190019804990968886003980068BE
:102040000090002872D0FFE7009810286ED0FFE7BC
:10205000009820286AD0FFE70098302866D0FFE774
:102060000098402855D0FFE70098502837D0FFE768
:102070000098602840D0FFE7009870280BD0FFE759
:102080000098B0F5805F05D0FFE70098B0F5005FDD
:1020900016D052E055E004980068039B5A6899688E
:1020A000DB6801F051FA049800688068019001989B
:1020B00040F077000190019804990968886040E039
:1020C00004980068039B5A689968DB6801F03CFA41
:1020D00004980168886840F48040886031E0049882
:1020E0000068039A5168D26801F022FC04980068E5
:1020F000502101F043FA24E004980068039A5168E3
:10210000D26801F03DFC04980068602101F036FAC5
:1021100017E004980068039A5168D26801F008FC3F
:1021200004980068402101F029FA0AE00498006848
:102130000399096801F022FA03E001208DF80B00F1
:10214000FFE70499012081F83D00FFE70499002092
:1021500081F83C00FFE79DF80B008DF81700FFE7C2
:102160009DF8170006B080BD80B588B007900020AC
:1021700006900590049003900798006840F2004193
:10218000C4F20001884231D1FFE7FFE741F21800B5
:10219000C4F20200016841F010010160006800F023
:1021A000100002900298FFE7402003900220049064
:1021B000069041F20000C4F2010003A9FEF772F993
:1021C000FFE70421C4F2010108680190019820F49E
:1021D00040600190019840F0E0600190019840F467
:1021E0004060019001980860FFE7FFE708B080BDFC
:1021F00080B586B004900391029200208DF807000C
:10220000FFE7049890F83C00012804D1FFE7022082
:102210008DF8170089E00499012081F83C00FFE760
:10222000FFE7029800900C2800F270800099DFE828
:1022300001F0076D6D6D206D6D6D3A6D6D6D530024
:1022400004980068039901F0AFF90498016888695F
:1022500040F00800886104980168886920F0040053
:10226000886103980269049801688869104388614D
:1022700050E004980068039901F00EFA0498016890
:10228000886940F40060886104980168886920F4D6
:10229000806088610398026904980168886940EA4F
:1022A0000220886136E004980068039901F070FA12
:1022B00004980168C86940F00800C8610498016882
:1022C000C86920F00400C861039802690498016895
:1022D000C8691043C8611DE004980068039901F0C3
:1022E000D3FA04980168C86940F40060C861049892
:1022F0000168C86920F48060C86103980269049885
:102300000168C86940EA0220C86103E001208DF835
:102310000700FFE7FFE70499002081F83C00FFE792
:102320009DF807008DF81700FFE79DF8170006B02D
:1023300080BD000080B582B00090009820B9FFE712
:1023400001208DF807003FE0009890F83D0040B96B
:10235000FFE70099002081F83C00009800F038F871
:10236000FFE70099022081F83D00009951F8040B25
:1023700001F02EF80099012081F84600FFE700994E
:10238000012081F83E00009981F83F00009981F812
:102390004000009981F84100FFE7FFE70099012024
:1023A00081F84200009981F84300009981F84400C7
:1023B000009981F84500FFE70099012081F83D0070
:1023C00000208DF80700FFE79DF8070002B080BDF0
:1023D00081B0009001B0704780B58CB00A9009912F
:1023E000099828B9FFE70A9890F83E0007901CE08A
:1023F0000998042805D1FFE70A9890F83F00069055
:1024000010E00998082805D1FFE70A9890F84000E5
:10241000059004E00A9890F841000590FFE70598C0
:102420000690FFE706980790FFE70798012804D079
:10243000FFE701208DF82F009FE0099828B9FFE7FA
:102440000A99022081F83E001EE00998042806D16E
:10245000FFE70A99022081F83F00049012E00998F2
:10246000082806D1FFE70A99022081F8400003906E
:1024700005E00A99022081F841000390FFE70398E4
:102480000490FFE70498FFE70A9800680999012281
:10249000019201F03DF801980A99096842F600425C
:1024A000C4F20102914202900CD0FFE70A98006842
:1024B0004CF60041CBF6FE710844B0FA80F04009BA
:1024C0000290FFE70298C00738B1FFE70A98016859
:1024D000486C40F400404864FFE70A98006842F600
:1024E0000041C4F2010188422AD0FFE70A9800683F
:1024F00043F20041C4F20101884221D0FFE70A986B
:102500000068B0F1804F1BD0FFE70A98006840F2E6
:102510000041C4F20001884212D0FFE70A98006827
:1025200040F60001C4F20001884209D0FFE70A9892
:10253000006840F60041C4F20001884212D1FFE772
:102540000A980068806800F007000890089806283C
:1025500007D0FFE70A980168086840F001000860AA
:10256000FFE706E00A980168086840F0010008608B
:10257000FFE700208DF82F00FFE79DF82F000CB03B
:1025800080BD000080B582B00090009820B9FFE7C0
:1025900001208DF8070040E00098806908B1FFE74E
:1025A00000E0FFE7009890F8410040B9FFE700998C
:1025B000002081F84000009800F034F8FFE700990F
:1025C000242081F8410000980168C86820F4005078
:1025D000C860009801F0FEF900980168086920F4CD
:1025E0009040086100980168486920F02A0048611D
:1025F00000980168C86840F40050C8600099002045
:102600004864009A202182F84110009A82F8421012
:10261000009948638DF80700FFE79DF8070002B0B6
:1026200080BD000080B58AB0099000200890079016
:10263000069005900998006843F60001C4F2010174
:10264000884239D1FFE7FFE741F21800C4F20200E7
:10265000016841F480410160006800F4804004900A
:102660000498FFE7FFE741F21800C4F20200016896
:1026700041F004010160006800F004000390039839
:10268000FFE74FF4007005900220069003200890A9
:1026900040F60000C4F20100019005A90291FDF787
:1026A00001FF019802994FF4806205920022069280
:1026B0000792FDF7F7FEFFE70AB080BD80B58AB04C
:1026C00008900791ADF81A20059300200290089811
:1026D00090F84100202878D1FFE7079820B1FFE764
:1026E000BDF81A0020B9FFE701208DF8270070E03F
:1026F0000899002048640899212081F84100FEF7DC
:10270000ADF80290BDF81A0008998884BDF81A0047
:102710000899C88408988068B0F5805F09D1FFE700
:102720000898006928B9FFE70020049007980390F3
:1027300004E00798049000200390FFE7FFE7089863
:10274000C08C58B3FFE70898029B05996A46116050
:102750008021002201F09CF920B1FFE703208DF8D1
:10276000270036E0049858B9FFE7039800886FF314
:102770005F2008990968486003980230039008E0D8
:10278000049800780899096848600498013004901A
:10279000FFE70899C88C0138C884D0E70898029BE5
:1027A00005996A4611604021002201F071F920B1BB
:1027B000FFE703208DF827000BE00899202081F81F
:1027C000410000208DF8270003E002208DF827004B
:1027D000FFE79DF827000AB080BD0000FFE7FEE795
:1027E00082B0009000980068406900F48061012088
:1027F000B0EB912F1ED1FFE7009801686FF4806065
:102800004861009900200863009A202182F83D1059
:10281000009981F83E000099086C40F004000864BB
:10282000FFE70099002081F83C00FFE701208DF8C8
:10283000070003E000208DF80700FFE79DF8070080
:1028400002B0704780B588B00690ADF816100492BB
:1028500003930698C06A029006980168086840F4DD
:10286000806008600298082809D0FFE702980128D4
:1028700005D0FFE7029810F5803F07D1FFE70698E3
:102880000168086840F4807008600DE00698006BED
:10289000112807D1FFE706980168086840F48070A6
:1028A000086000E0FFE7FFE70698049B03996A468B
:1028B00011604FF00111002200F07AF980B1FFE7BA
:1028C000069800680068C005002805D5FFE706994E
:1028D0004FF400700864FFE703208DF81F0082E0CA
:1028E00006980069B0F5804F08D1FFE79DF8160003
:1028F00040F0010006990968086162E0BDF8160021
:1029000000F44070C009F030069909680861069823
:10291000049A039B0821C0F2010100F0CDF920B117
:10292000FFE701208DF81F005DE09DF81600069975
:10293000096808610698049A039B0221C0F201010C
:1029400000F0BAF920B1FFE701208DF81F004AE03E
:10295000FFE7002001900698006840690190069802
:102960000068806901900198FFE70698016808688F
:1029700040F4807008600698049B03996A461160D1
:102980004FF00111002200F013F980B1FFE7069823
:1029900000680068C005002805D5FFE706994FF4D8
:1029A00000700864FFE703208DF81F001BE0BDF8EE
:1029B000160000F44070C009F130069909680861FA
:1029C000FFE70698049A039B0221C0F2010100F080
:1029D00073F920B1FFE701208DF81F0003E000200C
:1029E0008DF81F00FFE79DF81F0008B080BD0000B4
:1029F00080B588B00690ADF816100492039306983F
:102A0000C06A02900298082809D0FFE702980128BE
:102A100005D0FFE7029810F5803F07D1FFE7069841
:102A20000168086840F4807008600DE00698006B4B
:102A3000122807D1FFE706980168086840F4807003
:102A4000086000E0FFE7FFE70698049B03996A46E9
:102A500011604FF00111002200F0AAF880B1FFE7E9
:102A6000069800680068C005002805D5FFE70699AC
:102A70004FF400700864FFE703208DF81F003CE06E
:102A800006980069B0F5804F08D1FFE7BDF8160041
:102A900000F0FE000699096808611CE0BDF8160008
:102AA00000F44070C009F030069909680861069882
:102AB000049A039B0821C0F2010100F0FDF820B147
:102AC000FFE701208DF81F0017E09DF8160006991A
:102AD00009680861FFE70698049A039B0221C0F287
:102AE000010100F0E9F820B1FFE701208DF81F0097
:102AF00003E000208DF81F00FFE79DF81F0008B0DD
:102B000080BD000080B584B0029001910092FFE783
:102B100002980068406900F004010020B0EB910FBA
:102B20003ED1FFE70298FFF75BFE20B1FFE70120EF
:102B30008DF80F0038E00198013080B3FFE7FDF712
:102B40008DFE0099401A0199884203D8FFE7019849
:102B500020BBFFE702980068406900F004010020F4
:102B6000B0EB910F19D1FFE7029900200863029A98
:102B7000202182F83D10029981F83E000299086CEC
:102B800040F020000864FFE70299002081F83C0033
:102B9000FFE701208DF80F0006E0FFE7FFE7B7E74A
:102BA00000208DF80F00FFE79DF80F0004B080BDF6
:102BB00080B588B0DDF828C0069005918DF8132007
:102BC0000393FFE79DF8160001280CD1FFE7069854
:102BD00000684069BDF814100840401AB0FA80F04F
:102BE000400902900BE0069800688069BDF8141057
:102BF0000840401AB0FA80F040090290FFE70298BE
:102C00009DF8131088424FD1FFE703980130002848
:102C100049D0FFE7FDF722FE0A99401A039988423E
:102C200003D8FFE70398E8BBFFE79DF816000128EB
:102C30000CD1FFE7069800684069BDF81410084001
:102C4000401AB0FA80F0400901900BE00698006845
:102C50008069BDF814100840401AB0FA80F04009AD
:102C60000190FFE701989DF81310884219D1FFE702
:102C7000069900200863069A202182F83D100699E3
:102C800081F83E000699086C40F020000864FFE7D8
:102C90000699002081F83C00FFE701208DF81F0015
:102CA00006E0FFE7FFE78DE700208DF81F00FFE754
:102CB0009DF81F0008B080BD80B588B006900591D2
:102CC00004920393FFE79DF8160001280CD1FFE75B
:102CD000069800684069BDF814100840401AB0FA20
:102CE00080F0400902900BE0069800688069BDF80A
:102CF00014100840401AB0FA80F040090290FFE733
:102D0000029800287AD1FFE706980068406900F42D
:102D100080610120B0EB912F24D1FFE70698016874
:102D2000086840F400700860069801686FF48060DD
:102D30004861069900200863069A202182F83D1018
:102D4000069981F83E000699086C40F0040008647A
:102D5000FFE70699002081F83C00FFE701208DF88D
:102D60001F004FE004980130002846D0FFE7FDF730
:102D700075FD0399401A0499884203D8FFE7049827
:102D8000D0BBFFE79DF8160001280CD1FFE706989D
:102D900000684069BDF814100840401AB0FA80F08D
:102DA000400901900BE0069800688069BDF8141096
:102DB0000840401AB0FA80F040090190FFE70198FE
:102DC000C8B9FFE7069900200863069A202182F817
:102DD0003D10069981F83E000699086C40F02000ED
:102DE0000864FFE70699002081F83C00FFE7012016
:102DF0008DF81F0006E0FFE7FFE764E700208DF88D
:102E00001F00FFE79DF81F0008B080BD80B584B0AB
:102E1000029001910092FFE702980068406900F07B
:102E200040010020B0EB911F56D1FFE702980068E7
:102E3000406900F010010120B0EB111F1CD1FFE729
:102E4000029801686FF01000486102990020086341
:102E5000029A202182F83D10029981F83E000299E1
:102E6000086C0864FFE70299002081F83C00FFE746
:102E700001208DF80F0033E0FDF7F0FC0099401AB7
:102E80000199884203D8FFE7019820BBFFE7029829
:102E90000068406900F040010020B0EB911F19D19B
:102EA000FFE7029900200863029A202182F83D1072
:102EB000029981F83E000299086C40F020000864F5
:102EC000FFE70299002081F83C00FFE701208DF820
:102ED0000F0005E0FFE79FE700208DF80F00FFE7F8
:102EE0009DF80F0004B080BD80B584B002900191C0
:102EF0000092FFE7029800684069C1B20020B0EB81
:102F0000D11F3DD1FFE70298FFF76AFC20B1FFE730
:102F100001208DF80F0037E00198013078B3FFE70A
:102F2000FDF79CFC0099401A0199884203D8FFE7FD
:102F3000019818BBFFE7029800684069C1B2002001
:102F4000B0EBD11F19D1FFE7029900200863029A64
:102F5000202182F83D10029981F83E000299086C08
:102F600040F020000864FFE70299002081F83C004F
:102F7000FFE701208DF80F0006E0FFE7FFE7B9E764
:102F800000208DF80F00FFE79DF80F0004B080BD12
:102F900080B590B000200F900E900D900C90FFE740
:102FA00041F21800C4F20200016841F02001016002
:102FB000006800F020000B900B98FFE7FFE741F25C
:102FC0001800C4F20200016841F0040101600068C9
:102FD00000F004000A900A98FFE7FFE741F21800AA
:102FE000C4F20200016841F010010160006800F0C5
:102FF000100009900998FFE7FFE741F21800C4F2BA
:103000000200016841F008010160006800F008005A
:1030100008900898FFE740F60000C4F20100039012
:103020001021009100220592FDF700FC059A41F263
:103030000000C4F2010006904FF4A451FDF7F6FB26
:10304000009A039805990C92012204920D920E9118
:10305000022102910F910CA90791FDF723FA029A20
:10306000DDF810C0059B069807994FF0800ECDF84B
:1030700030E0CDF834C00E930F92FDF713FA049AA6
:10308000059B069807994FF4807CCDF804C0CDF8D5
:1030900030C00D930E92FDF705FA019B029A03983A
:1030A00007990C930D920F92FDF7FCF9049B059A7A
:1030B000069807994FF4A05CCDF830C00D930E929E
:1030C00003220F92FDF7EEF9059A069807994FF43F
:1030D00000630C930D920E92FDF7E4F910B080BDE1
:1030E00080B582B040F27800C2F20000019045F253
:1030F0000041C4F20001016048F2A061C0F2010188
:10310000416000218160C1604FF4804202614161F1
:103110008161C1610162FDF7A7FB18B1FFE7FDF70F
:1031200097F9FFE702B080BD80B58EB00021009115
:103130000D910C910B910A910991089107910691BB
:103140000591049103910291019140F2CC00C2F2E9
:10315000000040F20042C4F20002026047224260D6
:10316000816040F2E732C26001618161FEF7CEFE0C
:1031700018B1FFE7FDF76CF9FFE74FF480500A90B4
:1031800040F2CC00C2F200000AA9FEF72BFF18B1F2
:10319000FFE7FDF75DF9FFE740F2CC00C2F2000067
:1031A000FFF7C8F818B1FFE7FDF752F9FFE7002075
:1031B0000890099040F2CC00C2F2000008A9FEF786
:1031C00025FE18B1FFE7FDF743F9FFE76020019006
:1031D000002202920392059240F2CC00C2F200005B
:1031E00001A9FFF705F818B1FFE7FDF731F9FFE78F
:1031F00040F2CC00C2F20000FEF7B6FF0EB080BD78
:1032000080B582B040F21410C2F20000019043F683
:103210000001C4F2010101604FF4E131416000217D
:103220008160C16001610C2242618161C161FFF76F
:10323000A9F918B1FFE7FDF70BF9FFE702B080BD70
:10324000FFE7FEE7FFE7FEE788B0079006910592EB
:10325000079800F0070004900498C0F107000528C3
:1032600003D3FFE70420019004E00498C0F10700B5
:103270000190FFE70198039004980430062803D8D2
:10328000FFE70020009003E0049803380090FFE778
:103290000098029006980399012202FA01F101397F
:1032A0000840029B984005999A40013A1140084312
:1032B00008B070477047000082B00190019840F25A
:1032C0000001C2F200010968C90844F6D352C1F2F4
:1032D0006202A1FB0221890948430090FFE700BF79
:1032E000FFE70098411E00910028F8D1FFE702B0E7
:1032F000704700007047000080B582B000900098D1
:103300000138B0F1807F03D3FFE70120019019E07D
:10331000009801384EF21401CEF2000108604FF01F
:10332000FF300F2100F028FC4EF21801CEF2000110
:10333000002008604EF21002CEF200020721116058
:103340000190FFE7019802B080BD000080B5FDF755
:103350007FFF80BD80B590B006A800902821FCF7C3
:10336000B0FF009800230593049303930293019305
:10337000012206924FF48031079108930A920222AB
:103380000D920E914FF4E0110F91FEF7F9F918B17B
:10339000FFE7FDF75DF8FFE70F20019002210291A2
:1033A000002003904FF480620492059001A8FDF77D
:1033B000FDFF18B1FFE7FDF74BF8FFE74FF0E061C5
:1033C00000221046FEF7A8F910B080BD704700003B
:1033D00083B002900191029800680090029842F632
:1033E0000041C4F20101884225D0FFE7029843F270
:1033F0000041C4F2010188421DD0FFE70298B0F1FC
:10340000804F18D0FFE7029840F20041C4F200015B
:10341000884210D0FFE7029840F60001C4F2000194
:10342000884208D0FFE7029840F60041C4F200014C
:1034300088420AD1FFE7009820F0700000900198C0
:103440004168009808430090FFE7029842F6004167
:10345000C4F20101884225D0FFE7029843F20041FF
:10346000C4F2010188421DD0FFE70298B0F1804FFD
:1034700018D0FFE7029840F20041C4F200018842F0
:1034800010D0FFE7029840F60001C4F20001884224
:1034900008D0FFE7029840F60041C4F200018842DC
:1034A0000AD1FFE7009820F4407000900198C168AD
:1034B000009808430090FFE7009820F080000199F1
:1034C0004969084300900098029908600198806853
:1034D0000299C8620198006802998862029842F6CF
:1034E0000041C4F20101884208D0FFE7029843F28C
:1034F0000041C4F20101884205D1FFE7019800694B
:1035000002990863FFE702990120486103B0704700
:1035100084B0039002910192029800F01F010120F3
:1035200088400090009A0399086A904308620198C5
:10353000029901F01F0100FA01F20399086A104391
:10354000086204B07047000085B0049003910292B5
:103550000193049880680090009820F47F400090C8
:1035600003980299019A41EA022101430098084315
:10357000009000980499886005B0704783B002906D
:103580000191029880680090009820F070000090EF
:1035900001980099084340F00700009000980299B4
:1035A000886003B07047000085B0049003910498D0
:1035B000006A01900499086A20F0010008620498EA
:1035C00040680090049880690290029820F0700092
:1035D0000290029820F0030002900398016802987C
:1035E00008430290019820F002000190039881683E
:1035F000019808430190049842F60041C4F2010189
:10360000884208D0FFE7049843F20041C4F2010168
:1036100088420ED1FFE7019820F00800019003983E
:10362000C168019808430190019820F004000190BE
:10363000FFE7049842F60041C4F20101884208D035
:10364000FFE7049843F20041C4F20101884213D11C
:10365000FFE7009820F480700090009820F400703C
:10366000009003984169009808430090039881698D
:10367000009808430090FFE700980499486002987A
:1036800004998861039840680499486301980499F3
:10369000086205B07047000085B00490039104985B
:1036A000006A01900499086A20F0100008620498EA
:1036B00040680090049880690290029820F4E040ED
:1036C0000290029820F440700290039801680298DA
:1036D00040EA01200290019820F020000190039818
:1036E0008168019840EA01100190049842F6004177
:1036F000C4F20101884208D0FFE7049843F2004178
:10370000C4F2010188420FD1FFE7019820F0800048
:1037100001900398C168019840EA01100190019856
:1037200020F040000190FFE7049842F60041C4F207
:103730000101884208D0FFE7049843F20041C4F237
:103740000101884215D1FFE7009820F480600090C5
:10375000009820F40060009003984169009840EAC6
:103760008100009003988169009840EA81000090F0
:10377000FFE70098049948600298049988610398CB
:1037800040680499886301980499086205B07047FD
:1037900085B0049003910498006A01900499086A26
:1037A00020F4807008620498406800900498C06912
:1037B0000290029820F070000290029820F003001E
:1037C000029003980168029808430290019820F43F
:1037D0000070019003988168019840EA01200190EF
:1037E000049842F60041C4F20101884208D0FFE784
:1037F000049843F20041C4F2010188420FD1FFE76F
:10380000019820F4006001900398C168019840EA93
:1038100001200190019820F480600190FFE7049856
:1038200042F60041C4F20101884208D0FFE7049843
:1038300043F20041C4F20101884215D1FFE700982C
:1038400020F480500090009820F4005000900398DD
:103850004169009840EA011000900398816900983E
:1038600040EA01100090FFE7009804994860029830
:103870000499C861039840680499C8630198049941
:10388000086205B07047000085B004900391049869
:10389000006A01900499086A20F480500862049834
:1038A000406800900498C0690290029820F4E040BB
:1038B0000290029820F440700290039801680298E8
:1038C00040EA01200290019820F4005001900398F2
:1038D0008168019840EA01300190049842F6004165
:1038E000C4F20101884208D0FFE7049843F2004186
:1038F000C4F2010188420BD1FFE7009820F4804018
:10390000009003984169009840EA81100090FFE719
:1039100000980499486002980499C8610398406827
:103920000499086401980499086205B07047000082
:1039300085B00490039102920498006A0090049963
:10394000086A20F0010008620498806901900198DB
:1039500020F0F00001900299019840EA01100190D6
:10396000009820F00A000090039900980843009006
:1039700001980499886100980499086205B070471D
:1039800085B00490039102920498006A0090049913
:10399000086A20F01000086204988069019001987C
:1039A00020F4704001900299019840EA01300190A2
:1039B000009820F0A00000900399009840EA0110C0
:1039C000009001980499886100980499086205B0F4
:1039D0007047000080B584B00390039800680069C8
:1039E00020F44050039A1168D2681043086103998B
:1039F00088680A694969104308430290039800687F
:103A0000C06841F20C618843029908430399096830
:103A1000C86003980068406920F44070039A1168F8
:103A20009269104348610398006843F60001C4F2AC
:103A30000101884204D1FFE7FDF7FCFD019003E09E
:103A4000FDF7E6FD0190FFE7019819214843039A2D
:103A5000116852689200B0FBF2FC48F21F52C5F2A6
:103A6000EB12ACFB02304309642003FB10CC322084
:103A700000EB0C10A0FB0202F02000EA521000EB59
:103A80000310C2F343121044886004B080BD0000EC
:103A900080B588B0DDF828C0069005918DF8132018
:103AA0000393FFE706980068006805990840401AEC
:103AB000B0FA80F040099DF81310884249D1FFE721
:103AC0000A980130002843D0FFE70A9840B1FFE789
:103AD000FCF7C4FE0399401A0A99884237D9FFE7D8
:103AE000FFE7FFE70698006850E8030F20F4D07066
:103AF0000290FFE702990698026842E80310002846
:103B0000F0D1FFE7FFE7FFE7FFE70698006850E81E
:103B1000050F20F001000190FFE701990698026867
:103B200042E805100028F0D1FFE7FFE706992020C2
:103B300081F84100069981F84200FFE706990020CC
:103B400081F84000FFE703208DF81F0005E0FFE744
:103B5000A8E700208DF81F00FFE79DF81F0008B0C0
:103B600080BD0000FFE7FEE74EF60C50CEF20000ED
:103B70000068C0F30220704782B08DF80700009102
:103B80009DF9070000280AD4FFE7009800019DF97D
:103B900007104EF20042CEF2000288540BE000986B
:103BA00000019DF8071001F00F014EF61452CEF2FD
:103BB00000028854FFE702B07047000083B0029013
:103BC000029800F0070000904EF60C51CEF2000172
:103BD0000868019001984FF6FF021040019001988B
:103BE000009A40EA02200022C0F2FA5210430190EB
:103BF0000198086003B0704780B582B000208DF84E
:103C000006008DF807000DF1060000F035F89DF86C
:103C1000071001208129009008D0FFE79DF80700D8
:103C20000138B0FA80F040090090FFE7009800F0FA
:103C3000010002B080BD000080B58CB040F62611B6
:103C4000C0F20001794402A82822FCF7F5FA00200E
:103C50000190FFE7019813280BDCFFE7019902A808
:103C600000EB410000F030F8FFE7019801300190CF
:103C7000F0E70CB080BD000080B586B005900599D6
:103C8000087840F080000870059A69464FF47A7011
:103C90000190086040F27800C2F200000490CA214E
:103CA000029101230393FDF78FF9DDF804C0029917
:103CB000039B0498059A0132EE46CEF800C0FCF74B
:103CC00025FF06B080BD000080B582B0019001994B
:103CD000087840F080000870019A69464FF47A70C5
:103CE000086040F27800C2F20000CA210223FDF70A
:103CF0006BF902B080BD000080B5AEB000200F901F
:103D00002D90FDF7B3FAFFF725FBFFF741F9FFF719
:103D1000E7F9FFF775FAFFF707FA4FF47A70FCF747
:103D20009FFB00F0A3FBFCF767FB0F9940F2CC0070
:103D3000C2F20000FEF750FB40F69600C0F2000011
:103D400078442E2100F04AFBFFE700F031FA00280A
:103D50003FD0FFE740F26810C2F20000007888BB55
:103D6000FFE740F6B830FCF77BFB00F035FA4FF088
:103D7000D050CDF8AF001A202B90694664200E90E9
:103D8000086040F27800C2F2000034212BAA072319
:103D9000FDF71AF9FCF762FD40F26011C2F2000172
:103DA00008603220FCF75CFB0E9B40F21410C2F25C
:103DB000000040F6D401C0F2000179443F22FEF732
:103DC0007DFCFFE740F26811C2F20001012008709B
:103DD00006E040F26811C2F2000100200870FFE71F
:103DE00040F26810C2F200000078012840F0DE8145
:103DF000FFE7FCF733FD40F26011C2F200010968F1
:103E0000421A90084AF20D01C4F24161A0FB011070
:103E1000000B4EF6341100FB11204DF2D8618842A0
:103E200009D8FFE740F2CC00C2F2000001684FF46D
:103E30007A7048632AE0FCF711FD40F26011C2F28B
:103E400000010968421A90084AF20D01C4F241616A
:103E5000A0FB0110000B4EF6341100FB11204EF6B2
:103E60006C01884208D8FFE740F2CC00C2F20000A3
:103E700001686420486308E040F2CC00C2F2000010
:103E800001684FF47A704863FFE7FFE73220FCF7E0
:103E9000E7FAFCF7E3FC40F26011C2F200010968A6
:103EA000421A44F6D350C1F26200A2FB0010C009CE
:103EB0004FF4FA6100FB112040F25C11C2F20001E4
:103EC000086040F26410C2F200000068096888428D
:103ED00007D9FFE740F21001C2F20001012008708B
:103EE00006E040F21001C2F2000100200870FFE776
:103EF00040F25C10C2F20000006840F26411C2F2AD
:103F00000001086040F21000C2F2000000780028B2
:103F100000F04881FFE74FF00140CDF8A700812075
:103F20002990694664200D90086040F27800C2F242
:103F300000000C9034210A9129AA0723FDF744F8C8
:103F40000D9900200990CDF89F002790269000F051
:103F5000C9FA0C980A990D9A6B461A6026AA0B2387
:103F60000B93FCF7D3FD0D990998CDF8930024909D
:103F7000239000F0B7FA0C980A990B9B0D9AEC4627
:103F8000CCF8002023AAFCF7C1FD0D990998CDF8C3
:103F900087002190209000F0A5FA0C980A990B9BBD
:103FA0000D9AEC46CCF8002020AAFCF7AFFD099B47
:103FB0000A990D9A0C981F931E931D936B461A60D5
:103FC0001DAA0C230893FCF7A1FD0D990998CDF8C3
:103FD0006F001B901A9000F085FA0C980A990B9BC1
:103FE0000D9AEC46CCF800201AAAFCF78FFD089B2E
:103FF000DDF824C00A990D9A0C98CDF864C0CDF86C
:1040000060C0CDF85CC0EC46CCF8002017AAFCF7E5
:104010007DFD0D990998CDF857001590149000F08A
:1040200061FA0C980A990B9B0D9AEC46CCF800208B
:1040300014AAFCF76BFDDDF824C00A990B9B0D9ABE
:104040000C98CDF84BC0CDF848C0CDF844C0EC4634
:10405000CCF8002011AAFCF759FD0D9B40F214107A
:10406000C2F2000040F23861C0F2000179440A2235
:10407000FEF724FB9DF88D0070B9FFE740F21410A5
:10408000C2F2000040F22361C0F200017944042230
:104090006423FEF713FB0DE040F21410C2F200009F
:1040A00040F20C61C0F20001794406226423FEF75D
:1040B00005FBFFE740F21410C2F20000079040F247
:1040C000F551C0F2000179440D2264230693FEF7F6
:1040D000F5FA069B07989DF8911049F69A12C1F6D9
:1040E0009912A1FB02C130318DF842109DF8911058
:1040F000A1FB02C202EB8202A1EB420130318DF83A
:1041000043100DF142010222FEF7D8FA069B0798F0
:1041100040F2B151C0F200017944049101220592AC
:10412000FEF7CCFA069B079840F29B51C0F20001C3
:10413000794412220192FEF7C1FA069B079820A942
:10414000013108220292FEF7B9FA069B07981DA9D1
:10415000013109220392FEF7B1FA0499059A069BF0
:104160000798FEF7ABFA019A069B079840F26A514E
:10417000C0F200017944FEF7A1FA029A069B079863
:104180001AA90131FEF79AFA039A069B079817A914
:104190000131FEF793FA0499059A069B0798FEF7FA
:1041A0008DFAFFE76420FCF75BF9FFE7CDE500003F
:1041B00080B582B00D20ADF8040000208DF8060017
:1041C00001A800F02FF89DF806008238B0FA80F0C0
:1041D000400902B080BD000080B582B000208DF89B
:1041E0000700FFE79DF8071040F2A230C0F2000080
:1041F000784430F821004FF6FF7188420FD0FFE776
:104200009DF80710481C8DF8070040F28030C0F27E
:104210000000784400EB810000F02EF8E2E702B0E5
:1042200080BD000080B586B00590059840788DF877
:104230001200059800788DF8130069464FF47A70E3
:104240000190086040F27800C2F200000390502113
:1042500002910DF112020223FCF7B6FE019B0299B6
:104260000398059A0232EC46CCF800300123FCF7A3
:104270004DFC06B080BD000080B584B0039003986B
:1042800040788DF80900039800788DF80A000398AB
:1042900080788DF80B0069464FF47A70086040F220
:1042A0007800C2F2000050210DF109020323FCF74F
:1042B0008BFE04B080BD000080B582B00D20ADF84B
:1042C000040000208DF8060001A800F03DF89DF8DC
:1042D00006009B38B0FA80F0400902B080BD0000B3
:1042E00080B541F20000C4F201004FF48061012268
:1042F000FCF79CFA3220FCF7B3F880BD80B582B0A1
:1043000000208DF80700FFE79DF8071040F2A62077
:10431000C0F20000784430F821004FF6FF71884267
:104320000FD0FFE79DF80710481C8DF8070040F2FA
:104330008420C0F20000784400EB810000F02EF8E9
:10434000E2E702B080BD000080B586B00590059818
:1043500040788DF81200059800788DF813006946B2
:104360004FF47A700190086040F27800C2F20000C9
:104370000390802102910DF112020223FCF724FE2A
:10438000019B02990398059A0232EC46CCF8003062
:104390000123FCF7BBFB06B080BD000080B584B0F4
:1043A0000390039840788DF80900039800788DF801
:1043B0000A00039880788DF80B0069464FF47A70F4
:1043C000086040F27800C2F2000080210DF109027D
:1043D0000323FCF7F9FD04B080BD000080B584B074
:1043E00003908DF80B1000208DF80A00FFE79DF870
:1043F0000A009DF80B10884235DAFFE703989DF814
:104400000A1030F82100ADF8060003989DF80A1054
:1044100000EB8100C078FF2808D1FFE703989DF8E2
:104420000A1000EB8100FFF7B9FF15E00DF106005F
:104430000090FFF789FF00989DF80810039A9DF8F7
:104440000A3002EB83039A78DB78994311438DF8A5
:104450000810FFF7A3FFFFE7FFE79DF80A00013010
:104460008DF80A00C3E704B080BD000080B5FBF7FB
:10447000CDFFFFF735FFFFF71FFF48B1FFE740F221
:104480006911C2F2000100200870FFF737FF06E053
:1044900040F26911C2F2000101200870FFE73220EA
:1044A000FBF7DEFFFFF784FE48B1FFE740F269113A
:1044B000C2F2000100204870FFF78EFE06E040F2D5
:1044C0006911C2F2000101204870FFE73220FBF7BA
:1044D000C7FFFFF791FB18B1FFE7FFF7ADFBFFE761
:1044E00080BD000080B584B08DF80F000291FCF70C
:1044F000B5F9019041F20000C4F201004FF480715F
:10450000FCF77CF98DF80300FFE79DF803009DF8A8
:104510000F10884214D0FFE7FCF7A0F90199401A68
:104520000299884201D9FFE70AE041F20000C4F293
:1045300001004FF48071FCF761F98DF80300E4E7A6
:1045400004B080BD00000000000000000102030470
:104550000607080900000000010203040203040525
:10456000060708090A0B0C0D0E0F1010010202B409
:104570000302040205501000110012001300146D14
:1045800015021600170018F519051AA31BEB1CF5E8
:104590001D051EA31FE80200C300130263001202E0
:1045A00003001602210017020100150204000D028B
:1045B00022000E0202000C020400FFFFFF00D602E0
:1045C0000300D702A200D9020300DA022100D302BD
:1045D0000400D5020300FFFFFF0053000003570053
:1045E00001035B0002035F000303C8010004C8016C
:1045F0000808C8011010CA0100FFCB0100FFCC0160
:1046000000FFCD0100FFCE0110FFCF0100FFD00160
:1046100022FFD101C8FFD20100FFD30100FFD40166
:1046200000FFD50100FFD60100FFD7010CFFD80124
:1046300007FFD901F4FFDA0104FFDB015BFFDC01B6
:1046400000FFDD0128FFDE0110FFDF0107FFE001B1
:1046500080FFE10100FFE20180FFE30104FFE401CC
:1046600038FFE5010103E701FFFFE801FFFFE90172
:10467000FFFFEA0100FFEB0100FFEC0100FFED018D
:10468000F0FFEE01F0FFEF0178FF07000101C80124
:10469000E3E35F5F5F5F5F4E45575F4445564943C5
:1046A000455F5F5F5F5F0A0073746174653A202045
:1046B0002020004F4B210A004641494C210A00545A
:1046C000656D70657261747572653A20000A0073D9
:1046D0006F6674776172652076657273696F6E3A82
:1046E0002000686172647761726520766572736913
:1046F0006F6E3A20000000001847000800000020FC
:10470000180000009401000830470008180000203D
:1047100058070000B40100080024F4000000000065
:104720008877665544332211010100001000000013
:0400000508000131BD
:00000001FF
