:020000040800F2
:1000000028090020CD010008B52C0008272500088C
:10001000B12C0008AF040008EB310008000000001C
:10002000000000000000000000000000E52C0008B7
:10003000750A000800000000B92C0008E72C000831
:10004000E7010008E7010008E7010008E7010008F0
:10005000E7010008E7010008E7010008E7010008E0
:10006000E7010008E7010008E7010008E7010008D0
:10007000E7010008E7010008E7010008E7010008C0
:10008000E7010008E7010008E7010008E7010008B0
:10009000E7010008E7010008E7010008E7010008A0
:1000A000E7010008E7010008E7010008E701000890
:1000B000E7010008E7010008E7010008E701000880
:1000C000E7010008E7010008E7010008E701000870
:1000D000E7010008E3310008E7010008E701000834
:1000E000E7010008E7010008E7010008E701000850
:1000F000E7010008E7010008E7010008E701000840
:10010000E7010008E7010008E7010008E70100082F
:10011000E7010008E7010008E7010008E70100081F
:10012000E7010008E7010008E7010008E70100080F
:1001300000F002F800F03AF80AA090E8000C8244BF
:100140008344AAF10107DA4501D100F02FF8AFF29C
:10015000090EBAE80F0013F0010F18BFFB1A43F0A5
:1001600001031847AC450000CC450000103A24BFFD
:1001700078C878C1FAD8520724BF30C830C144BF0C
:1001800004680C607047000000230024002500264E
:10019000103A28BF78C1FBD8520728BF30C148BFEA
:1001A0000B6070471FB51FBD10B510BD00F046F9BC
:1001B0001146FFF7F7FF03F091F800F064F903B47C
:1001C000FFF7F2FF03BC00F06BF90000094880471D
:1001D00009480047FEE7FEE7FEE7FEE7FEE7FEE729
:1001E000FEE7FEE7FEE7FEE704480549054A064B41
:1001F00070470000612D000831010008280300202D
:1002000028090020280500202805002053EA020CB8
:1002100000F069802DE9F04B4FF00006002B1FBF66
:10022000B3FA83F503FA05F424FA05F65E4012BF2B
:100230001643B2FA82F502FA05F4C5F120051EBF95
:1002400022FA05FC44EA0C04203556EA044C4FEA35
:10025000144418BF641C4FF000084FF0000990428E
:1002600071EB030C39D3002919BFB1FA81F701FAF8
:1002700007F6B0FA80F700FA07F6C7F120071EBFAD
:1002800020FA07FC46EA0C062037B6FBF4FCA7EB85
:100290000507103F07F01F0BCBF120060CFA0BFBF4
:1002A0002CFA06F644BFB3460026202FA4BF5E46B4
:1002B0004FF0000B5BEA060C08BF4FF0010B19EB87
:1002C0000B09ABFB027C48EB0608C01B06FB02CC0B
:1002D0000BFB03CC71EB0C01C1E70B460246414618
:1002E0004846BDE8F08B13B54FF000004FF0000119
:1002F000AFF30080BDE81C407047032A40F2308015
:1003000010F0030C00F0158011F8013BBCF1020F56
:10031000624498BF11F801CB00F8013B38BF11F8D7
:10032000013BA2F1040298BF00F801CB38BF00F8EE
:10033000013B11F0030300F04F80083AC0F0088041
:1003400051F8043B083A51F804CBA0E80810F5E74F
:10035000121D5CBF51F8043B40F8043BAFF3008032
:10036000D20724BF11F8013B11F801CB48BF11F8A7
:10037000012B24BF00F8013B00F801CB48BF00F877
:10038000012B70474FF0000200B513469446964685
:10039000203922BFA0E80C50A0E80C50B1F1200198
:1003A000BFF4F7AF090728BFA0E80C5048BF0CC046
:1003B0005DF804EB890028BF40F8042B08BF7047A4
:1003C00048BF20F8022B11F0804F18BF00F8012B16
:1003D000704770477047704710B5203AC0F00B80E7
:1003E000B1E81850203AA0E81850B1E81850A0E839
:1003F0001850BFF4F5AF5FEA027C24BFB1E8185093
:10040000A0E8185044BF18C918C0BDE810405FEA02
:10041000827C24BF51F8043B40F8043B08BF70477E
:10042000D20728BF31F8023B48BF11F8012B28BF83
:1004300020F8023B48BF00F8012B7047754600F0DA
:100440002BF8AE4605006946534620F00700854666
:1004500018B020B5FFF7C8FEBDE820404FF00006F9
:100460004FF000074FF000084FF0000B21F007019C
:10047000AC46ACE8C009ACE8C009ACE8C009ACE8DF
:10048000C0098D46704710B50446AFF30080204682
:10049000BDE81040FFF793BE00487047C40200203B
:1004A00001491820ABBEFEE726000200704700BFDE
:1004B000FEE7000008B5F848006800F00E0040B103
:1004C000F54800680090F448001D0068009000BFE7
:1004D00000BFF148006800F0200000286FD0EE490E
:1004E000091D0968C8B200BFEB49096801F0800125
:1004F0000029F9D0E849091D0860E849097851291F
:100500006FD2DFE801F0292F616E6E6E6E6E6E6E37
:100510006F757B816E6E6E6E6E6E8D93999FA5ABBF
:10052000B1B7BD6E6E6E6E6E6E6E6E6E6E6EFEFDF1
:10053000FCFBFAF9F8F7F6F5F4F3F26E6E6E6E6EF8
:100540006E6EF1F0EFEEEDECEBEAE9E8E7E6E5E4FC
:10055000E3E2E1E0DFDEDD00AA2802D10121CF4A9B
:1005600011705DE2CE4908700978102903D10A2183
:10057000CA4A117027E0CA490978112903D1142108
:10058000C64A11701FE0C6490978122903D12821F3
:10059000C24A117017E0C2490978132903D13C21DE
:1005A000BE4A11700FE0BE490978012908DBBC4939
:1005B0000978042904DC0221B84A117003E031E211
:1005C0000021B64A11702BE2552806D1B4490978AA
:1005D000B44A11700121B44A11700021AF4A117060
:1005E0001EE219E2B14908700B21AC4A117017E202
:1005F000AF4908700C21A94A117011E2AD49087089
:100600000D21A64A11700BE2552805D11021A54AEB
:1006100011700121A44A11700021A04A1170FFE15C
:10062000A549087015219D4A1170F9E1A249487049
:1006300016219A4A1170F3E19F4988701721974A51
:100640001170EDE19C49C8701821944A1170E7E1DE
:10065000994908711921914A1170E1E1964948714F
:100660001A218E4A1170DBE1934988711B218B4A54
:100670001170D5E19049C8711C21884A1170CFE1F1
:1006800055284BD18C4909788B4A527841EA02218E
:100690008A4A118088498978874AD27841EA0221BA
:1006A000874A118084490979834A527941EA0221B3
:1006B000844A11800021844A11607F49897921E0B0
:1006C0004EE147E140E139E132E12BE124E11DE176
:1006D00016E10FE108E101E1D8E0D1E0CAE0C3E0B2
:1006E000BCE0B5E0AEE0A7E0A0E063E05CE055E090
:1006F0004EE047E040E039E032E02BE024E01DE04E
:1007000016E00FE0714A11706B49C979704A117097
:100710001121644A11700121634A117000215F4A5E
:1007200011707DE16B49087029215C4A117077E1F5
:10073000684948702A21594A117071E165498870E9
:100740002B21564A11706BE16249C8702C21534A23
:10075000117065E15F4908712D21504A11705FE108
:100760005C4948712E214D4A117059E159498871EF
:100770002F214A4A117053E15649C8713021474A26
:1007800011704DE1534908723121444A117047E11B
:10079000504948723221414A117041E14D498872F5
:1007A00033213E4A11703BE14A49C87234213B4A29
:1007B000117035E1552835D146490978454A5278B6
:1007C00041EA02213D4A118042498978414AD27862
:1007D00041EA02213A4A11803E4909793D4A52795B
:1007E00041EA0221374A11803A498979394AD27956
:1007F00041EA0221374A127A41EA0241354A527AE5
:1008000041EA0261304A11603249897A2F4A1170F7
:100810003049C97A2E4A11701221224A11700121E1
:10082000214A117000211D4A1170F9E02A4908700F
:100830003D211A4A1170F3E0274948703E21174ABA
:100840001170EDE0244988703F21144A1170E7E0EF
:100850002149C8704021114A1170E1E01E49087118
:1008600041210E4A1170DBE01B49487142210B4ABD
:100870001170D5E0184988714321084A1170CFE002
:100880001549C8714421054A1170C9E0124908721E
:100890004521024A1170C3E00038014031000020B8
:1008A0003200002009000020080000200A0000207B
:1008B0000B0000200C000020330000200E00002060
:1008C0001000002012000020140000202000002052
:1008D00021000020340100204001002052494872CC
:1008E0004621524A11709BE04F49887247214F4A76
:1008F000117095E04C49C87248214C4A11708FE044
:10090000494908734921494A117089E046494873A9
:100910004A21464A117083E0434988734B21434A78
:1009200011707DE04049C8734C21404A117077E056
:100930003D4908744D213D4A117071E03A494874AF
:100940004E213A4A11706BE0374988744F21374A7B
:10095000117065E03449C8745021344A11705FE069
:10096000552855D1304909782F4A527841EA022159
:100970002F4A11802C4989782B4AD27841EA0221EA
:100980002C4A118028490979274A527941EA0221E3
:10099000294A118024498979234AD27941EA0221DE
:1009A000214A127A41EA02411F4A527A41EA02611F
:1009B000224A11601C49897A1B4AD27A41EA0221F3
:1009C0001F4A11801849097B174A527B41EA0221CC
:1009D0001C4A11801449897B134AD27B41EA0221C7
:1009E000194A11801049097C0F4A527C41EA0221C0
:1009F000164A11800C49897C154A11700A49C97C34
:100A0000144A11701321144A11700121134A1170F4
:100A10000021064A117003E00021044A117000BF52
:100A200000BF00BF08BD00004001002031000020D1
:100A30000E000020100000201200002014000020F2
:100A4000180000201A0000201C0000201E000020BA
:100A500020000020210000200900002008000020C4
:100A600010B500228021024800F0E8F910BD000016
:100A7000001001407047000010B50122802102489B
:100A800000F0DCF910BD00000010014010B500BFFF
:100A90004FF40061084800F0C9F90128F8D10A2094
:100AA00000F010F801221103034800F0C7F90A20F2
:100AB00000F008F810BD00000010014072B600BF41
:100AC000FEE7000070B5044600F0BEF90646254674
:100AD000681C10B104480078054400BF00F0B4F968
:100AE000801BA842FAD370BD440000202DE9F847CE
:100AF000024600239C467BE14FF0010808FA03F40C
:100B0000D1F8008008EA0400A0427DD1DFF8F4A209
:100B1000D1F80480A8EB0A09D0453AD014DCB8F12A
:100B2000030F50D009DCB8F1000F31D0B8F1010F3C
:100B30001CD0B8F1020F49D120E0B8F1110F18D044
:100B4000B8F1120F42D11EE0B9F5881F25D006DC9E
:100B5000B9F5803F20D0B9F5801F37D11AE0B9F53B
:100B6000001F18D0B9F5041F30D117E0D1F80CC020
:100B70002DE0D1F80C8008F1040C28E0D1F80C80AD
:100B800008F1080C23E0D1F80C8008F10C0C1EE0F1
:100B900000BF00BF00BF00BF00BF00BFD1F808808A
:100BA000B8F1000F02D14FF0040C0BE0D1F808802F
:100BB000B8F1010F03D14FF0080C146102E04FF0BF
:100BC000080C546103E04FF0000C00E000BF00BFD0
:100BD000FF2801D8904601E002F104084646FF28AC
:100BE00002D84FEA830803E0A3F108084FEA880817
:100BF0004746D6F800804FF00F0909FA07F928EAAE
:100C000009080CFA07F900E07AE048EA0908C6F892
:100C10000080D1F8048008F08058B8F1805F6FD16F
:100C200000BFDFF8E481D8F8188048F00108DFF849
:100C3000D891C9F81880C846D8F8188008F001087B
:100C4000CDF8008000BF00BF4FEAB9384FEA9309E2
:100C500058F829504FEA83784FEA18794FF00F0877
:100C600008FA09F825EA0805DFF8A081424502D113
:100C70004FF0000824E0DFF89881424502D14FF0A0
:100C800001081DE0DFF88C81424502D14FF00208D7
:100C900016E0DFF88481424502D14FF003080FE0EF
:100CA000DFF87881424502D14FF0040808E0DFF810
:100CB0007081424502D14FF0050801E04FF006086F
:100CC0004FEA83794FEA197908FA09F848EA0505E5
:100CD000DFF850814FEA930948F82950D1F8048091
:100CE00008F48018B8F5801F0BD1DFF83C81D8F8E4
:100CF000008048EA0008DFF83091C9F800800AE077
:100D000075E0DFF82481D8F8008028EA0008DFF8D1
:100D10001891C9F80080D1F8048008F40018B8F5DB
:100D2000001F0ED1DFF8008108F10408D8F8008018
:100D300048EA0008DFF8F09009F10409C9F80080DA
:100D40000DE0DFF8E48008F10408D8F8008028EA14
:100D50000008DFF8D49009F10409C9F80080D1F83F
:100D6000048008F40038B8F5003F0ED1DFF8B880F1
:100D7000A8F10408D8F8008048EA0008DFF8A89035
:100D8000A9F10409C9F800800DE0DFF89C80A8F102
:100D90000408D8F8008028EA0008DFF88C90A9F150
:100DA0000409C9F80080D1F8048008F48038B8F547
:100DB000803F0ED1DFF87080A8F10808D8F80080D5
:100DC00048EA0008DFF86090A9F10809C9F8008036
:100DD0000DE0DFF85480A8F10808D8F8008028EA70
:100DE0000008DFF84490A9F10809C9F800805B1CED
:100DF000D1F8008028FA03F8B8F1000F7FF47CAE38
:100E0000BDE8F88700001110001002400008014002
:100E1000000C014000100140001401400018014086
:100E2000001C01400800014008040140024693688C
:100E30000B400BB1012000E0002070470AB10161B6
:100E400001E00B040361704701480068704700002F
:100E50003C00002070B504460CB9012070BD94F828
:100E60003D0028B9002084F83C00204600F048FBF3
:100E7000242084F83D002068006820F001002168EB
:100E800008602068006840F400402168086020681D
:100E9000006820F400402168086000F00BFD054662
:100EA0005C496068884206D85B48854201D20120CF
:100EB00007E0002005E05948854201D2012000E00A
:100EC0000020012800D1C9E75548B5FBF0F620689D
:100ED000406820F03F003043216848604D49606819
:100EE000884201D8701C07E04FF4967070434FF4AD
:100EF0007A71B0FBF1F0401C2168096A21F03F01D2
:100F000008432168086243496068884214D8681E13
:100F100061684900B0FBF1F0401CC0F30B000428ED
:100F200001D204203DE0681E61684900B0FBF1F089
:100F3000401CC0F30B0034E0A06838B9681E61683B
:100F400001EB4101B0FBF1F0401C0AE0681E616852
:100F500001EBC10202EB0111B0FBF1F0401C40F4C7
:100F60008040C0F30B0008B901201AE0A06848B91E
:100F7000681E616801EB4101B0FBF1F0401CC0F359
:100F80000B000CE0681E616801EBC10202EB01116D
:100F9000B0FBF1F0401CC0F30B0040F4804040F483
:100FA00000402168C9694CF6FF72914308432168EB
:100FB000C861D4E9070108432168096821F0C0012C
:100FC000084321680860D4E9031008432168896850
:100FD00048F2FF329143084321688860D4E9050153
:100FE00008432168C96821F0FF0108432168C860EF
:100FF0002068006840F0010021680860002020643B
:10100000202084F83D000020206384F83E0000BFCB
:1010100024E70000A086010080841E0000093D0036
:1010200040420F002DE9FC47044689461746984682
:101030000A9E00200190FFF707FF054694F83D0047
:1010400020286FD119230122CD492046009501F0B7
:10105000BAFB10B10220BDE8FC8700BF94F83C0049
:10106000012801D10220F6E7012084F83C0000BFEE
:101070002068006800F0010028B92068006840F08E
:101080000100216808602068006820F40060216881
:101090000860222084F83D00102084F83E000020E3
:1010A00020646762A4F82A80608D2085B548E062DC
:1010B0002B4632464946204601F056FA08B1012037
:1010C000C9E7208D88B900BF0020009020684069E2
:1010D000009020688069009000BF00BF2068006811
:1010E00040F40070216808604BE0208D01281AD17F
:1010F0002068006820F480602168086072B600BF34
:10110000002000902068406900902068806900906D
:1011100000BF00BF2068006840F4007021680860CC
:1011200062B62EE029E1208D022819D120680068DE
:1011300040F400602168086072B600BF0020009093
:1011400020684069009020688069009000BF00BF5F
:101150002068006820F480602168086062B610E0B2
:101160002068006840F480602168086000BF0020AB
:10117000009020684069009020688069009000BF5E
:1011800000BFEBE0208D03287ED8208D012815D1EB
:101190002A463146204601F0F2FB08B101205AE709
:1011A00020680069616A0870606A401C6062208D76
:1011B000401E2085608D401E6085CFE0208D022876
:1011C0002CD13346002270492046009501F0FBFAED
:1011D00008B101203FE772B62068006840F4007053
:1011E0002168086020680069616A0870606A401CB4
:1011F0006062208D401E2085608D401E608562B635
:1012000020680069616A0870606A401C6062208D15
:10121000401E2085608D401E60859FE03346002281
:1012200059492046009501F0CEFA08B1012012E795
:101230002068006820F480602168086072B6206829
:101240000069616A0870606A401C6062208D401EFF
:101250002085608D401E60854C4800681921B0FBD8
:10126000F1F04FF47A71B0FBF1F0C0EBC00000EB8D
:101270008000019000BF0198401E01900198A8B91C
:1012800000202063202000E038E084F83D000020AA
:1012900084F83E00206C40F02000206462B600BF5D
:1012A000002084F83C0000BF0120D4E6206840699B
:1012B000C0F380000028DED02068006840F4007091
:1012C0002168086020680069616A0870606A401CD3
:1012D0006062208D401E2085608D401E608562B654
:1012E00020680069616A0870606A401C6062208D35
:1012F000401E2085608D401E60852FE02A463146C5
:10130000204601F03CFB08B10120A4E620680069FA
:10131000616A0870606A401C6062208D401E2085F2
:10132000608D401E608520684069C0F38000A8B1D0
:10133000208D032805D12068006820F48060216892
:10134000086020680069616A0870606A401C606219
:10135000208D401E2085608D401E6085208D0028D8
:101360007FF410AF202084F83D00002084F83E0078
:1013700000BF84F83C0000BF6DE602206BE6000071
:10138000020010000000FFFF0400010048000020E0
:101390002DE9F8430446894616461F46DDF82080AD
:1013A000FFF752FD054694F83D0020287ED1192311
:1013B000012251492046009501F005FA10B10220A2
:1013C000BDE8F88300BF94F83C00012801D1022059
:1013D000F6E7012084F83C0000BF2068006800F0B8
:1013E000010028B92068006840F001002168086009
:1013F0002068006820F4006021680860212084F8DB
:101400003D00102084F83E0000202064666267855D
:10141000608D20853948E0622B4642464946204689
:1014200001F03EF908B10120CAE700BF002000909A
:1014300020684069009020688069009000BF00BF6C
:1014400044E02A464146204601F0DEFA50B1206CC5
:10145000042805D12068006840F400702168086005
:101460000120ADE7606A007821680861606A401C6D
:101470006062608D401E6085208D401E2085206842
:101480004069C0F3800070B1208D60B1606A00785F
:1014900021680861606A401C6062608D401E608542
:1014A000208D401E20852A46414600E022E020464D
:1014B00001F056F950B1206C042805D1206800686D
:1014C00040F4007021680860012079E7208D002831
:1014D000B7D12068006840F40070216808602020BF
:1014E00084F83D00002084F83E0000BF84F83C00F2
:1014F00000BF65E7022063E7020010000000FFFF65
:1015000010B586B004460020029003900490059028
:1015100015492068884225D100BF1448806940F0F1
:101520000800124988610846806900F008000190AF
:1015300000BF00BFC020029012200390032005903E
:1015400002A90B48FFF7D2FA00BF0848C06940F46F
:1015500000100649C8610846C06900F400100190F7
:1015600000BF00BF06B010BD005400400010024094
:10157000000C014003480068034909780844014908
:10158000086070473C0000204400002010B5084867
:10159000006840F0100006490860032000F0A8F839
:1015A0000F2000F007F800F02BF8002010BD00001D
:1015B0000020024070B504460E4800784FF47A715E
:1015C000B1FBF0F00C490968B1FBF0F5284600F0DA
:1015D0002FFC08B1012070BD102C07D2002221463B
:1015E000501E00F047F80548046001E00120F2E7D2
:1015F0000020F0E7440000204800002040000020C8
:1016000008B500BF1148806940F001000F498861AA
:101610000846806900F00100009000BF00BF00BFD5
:101620000846C06940F08050C8610846C06900F0B3
:101630008050009000BF00BF00BF0549486820F0FF
:10164000E06040F00070486000BF08BD001002403C
:101650000000014001460846002809DB00F01F0396
:1016600001229A4043099B0003F1E023C3F80021C3
:1016700000BF70472DE9F05F80460D4616460027F3
:1016800001F0B6FD074639462A46334601F0070009
:10169000C0F1070ABAF1040F02D94FF0040A01E0C1
:1016A000C0F1070AD14600F1040ABAF1070F02D2CD
:1016B0004FF0000A01E0A0F1030AD4464FF0010AFE
:1016C0000AFA09FAAAF1010A0AEA020A0AFA0CFA63
:1016D0004FF0010B0BFA0CFBABF1010B0BEA030B08
:1016E0004AEA0B042146404601F08AFDBDE8F09F1E
:1016F00000BF00F00702064B19684FF6FF031940C0
:10170000044B0B4343EA0221014B196000BF7047B1
:101710000CED00E00000FA0570B504460D460CB96A
:10172000012070BD5B48006800F00700A8420ED29F
:101730005848006820F007002843564908600846CA
:10174000006800F00700A84201D00120E9E72078F6
:1017500000F0020002281DD1207800F004000428C7
:1017600005D14D48406840F4E0604B49486020781E
:1017700000F00800082805D14748406840F4605050
:10178000454948604448406820F0F000A16808439B
:1017900041494860207800F0010078B36068012872
:1017A00006D13D48006800F4003090B90120B8E748
:1017B0006068022806D13848006800F0007040B91F
:1017C0000120AEE73448006800F0020008B90120AB
:1017D000A7E73148406820F00300616808432E49BC
:1017E0004860FFF731FB064609E0FFF72DFB801B41
:1017F00041F28831884202D9032092E707E0264867
:10180000406800F00C006168B0EB810FEDD1214819
:10181000006800F00700A8420ED91E48006820F0BA
:10182000070028431B4908600846006800F00700CD
:10183000A84201D0012074E7207800F004000428B9
:1018400007D11548406820F4E060E1680843124978
:101850004860207800F00800082808D10E48406849
:1018600020F46050216940EAC1000B49486000F053
:1018700041F809494968C1F30311084A7A44515CA7
:10188000C8400749086007480068FFF793FE00203A
:1018900047E700000020024000100240CC2A000070
:1018A0004800002040000020014800687047000008
:1018B0004800002000B5FFF7F7FF04494968C1F36D
:1018C0000221034A7A44515CC84000BD0010024026
:1018D000942A000000B5FFF7E7FF04494968C1F307
:1018E000C221034A7A44515CC84000BD0010024046
:1018F000742A000070B5002100220024002300207B
:10190000144D696801F00C0505B3042D02D0082DB3
:101910001BD101E010481BE0104D7D44C1F383460C
:10192000AB5D01F480355DB10A4D6D68C5F340458E
:101930000B4E7E44725D084D5D43B5FBF2F402E050
:10194000084D03FB05F4204602E000BF024800BF3B
:1019500000BF70BD0010024000127A001C2A000077
:10196000142A000000093D0070B586B005460C46FB
:1019700016460020029003900490059002200390E8
:1019800003200590002004904FF48070029000BF67
:101990000C48806940F004000A4988610846806963
:1019A00000F00400019000BF00BF02A90648FFF745
:1019B0009DF80448406820F0E060204301494860F9
:1019C00006B070BD0010024000080140F8B50446A2
:1019D0000CB90120F8BD207800F00100002878D073
:1019E000F848406800F00C0004280CD0F548406826
:1019F00000F00C00082811D1F248406800F4803053
:101A0000B0F5803F0AD1EF48006800F400300028AC
:101A10005FD0606800285CD10120DBE700BF606810
:101A2000B0F5803F06D1E748006840F48030E549D2
:101A3000086028E0606858B9E248006820F4803007
:101A4000E04908600846006820F4802008601AE039
:101A50006068B0F5A02F0BD1DA48006840F4802010
:101A6000D84908600846006840F4803008600AE001
:101A7000D448006820F48030D249086008460068E5
:101A800020F48020086000BF606888B1FFF7DCF9AF
:101A9000054606E0FFF7D8F9401B642801D903206A
:101AA00098E7C848006800F400300028F2D010E041
:101AB000FFF7CAF9054606E0FFF7C6F9401B6428A0
:101AC00001D9032086E7BF48006800F400300028F1
:101AD000F2D1207800F00200022857D1B9484068BE
:101AE00000F00C0050B1B748406800F00C00082826
:101AF00018D1B448406800F4803098B9B148006803
:101B000000F0020020B12069012801D0012061E726
:101B1000AC48006820F0F800616940EAC100A949BA
:101B2000086033E02069E8B10120A7490860FFF7A9
:101B30008BF9054606E0FFF787F9401B022801D91B
:101B4000032047E79F48006800F002000028F2D019
:101B50009C48006820F0F800616940EAC10099499A
:101B6000086013E0002098490860FFF76DF905460A
:101B700006E0FFF769F9401B022801D9032029E795
:101B80009048006800F002000028F2D1207800F0B0
:101B9000080008282DD1A069B8B101208B49086040
:101BA000FFF752F9054606E0FFF74EF9401B022801
:101BB00001D903200EE78348406A00F002000028A4
:101BC000F2D0012001F07AF813E000207F4908608C
:101BD000FFF73AF9054606E0FFF736F9401B022801
:101BE00001D90320F6E67748406A00F00200002899
:101BF000F2D1207800F00400042873D10027714846
:101C0000C06900F0805070B900BF6E48C06940F0F4
:101C100080506C49C8610846C06900F0805000904F
:101C200000BF00BF01276A48006800F48070B0B9A7
:101C30006748006840F4807065490860FFF704F960
:101C4000054606E0FFF700F9401B642801D9032090
:101C5000C0E65F48006800F480700028F2D000BF42
:101C6000E068012806D15748006A40F00100554954
:101C7000086227E0E06858B95248006A20F0010085
:101C8000504908620846006A20F00400086219E022
:101C9000E06805280BD14B48006A40F00400494930
:101CA00008620846006A40F0010008620AE0454800
:101CB000006A20F00100434908620846006A20F0EB
:101CC0000400086200BFE068A0B1FFF7BDF8054658
:101CD00009E0FFF7B9F8401B41F28831884202D988
:101CE000032077E622E03748006A00F0020000286F
:101CF000EFD012E0FFF7A8F8054608E0FFF7A4F8D8
:101D0000401B41F28831884201D9032062E62D4808
:101D1000006A00F002000028F0D1012F05D1294807
:101D2000C06920F080502749C86100BFE069C8B38E
:101D30002448406800F00C00082860D0E0690228C0
:101D400048D1002020490866FFF77EF8054606E0E6
:101D5000FFF77AF8401B022801D903203AE6194818
:101D6000006800F000700028F2D1206AB0F5803FD2
:101D700007D11448406820F40030A1680843114995
:101D80004860D4E9080108430E49496821F47411F8
:101D900008430C49486001200B490866FFF754F8D6
:101DA000054607E03DE0FFF74FF8401B022801D948
:101DB00003200FE60348006800F000700028F2D00E
:101DC0002FE0000000100240000042428004424226
:101DD00000700040002014490866FFF735F80546FA
:101DE00006E0FFF731F8401B022801D90320F1E596
:101DF0000E48006800F000700028F2D111E0E069A0
:101E0000012800D1E6E50948466806F48031206AD9
:101E1000814204D106F47011606A814201D0012030
:101E2000D8E50020D6E50000000042420010024044
:101E300070B504462546681EB0F1807F01D30120AD
:101E40000FE0681E4FF0E02148610F214FF0FF3096
:101E500001F0D6F900204FF0E021886107200861E9
:101E6000002070BD30B502460B4600BF92F83C0022
:101E7000012801D1022030BD012082F83C0000BFC2
:101E8000022082F83D00106844681068816824F0E0
:101E900070041868044310684460144D1068A84228
:101EA00013D0134D1068A8420FD01068B0F1804FC6
:101EB0000BD0104D1068A84207D00F4D1068A842F3
:101EC00003D00E4D1068A84205D121F0800158685A
:101ED000014310688160012082F83D0000BF0020AE
:101EE00082F83C0000BF00BFC5E70000002C0140A5
:101EF000003401400004004000080040000C004095
:101F000010B504460CB9012010BD94F83D0028B965
:101F1000002084F83C00204600F026F8022084F8D7
:101F20003D00211D206800F01DFF012084F84600BF
:101F300000BF84F83E0001213F200155402001559B
:101F40004120015500BF00BF012084F8420043201A
:101F50000155442001554520015500BF012084F85A
:101F60003D000020D0E7000008B5094A0168914211
:101F70000DD100BF0749C96941F00201054AD1618D
:101F80001146C96901F00201009100BF00BF08BD00
:101F900000040040001002402DE9F04104460D46C7
:101FA000002700BF94F83C00012802D10220BDE8C0
:101FB000F081012084F83C0000BF022084F83D003D
:101FC0002068866826F0770626F47F4620688660BB
:101FD0002868502833D00CDC202850D004DC00289E
:101FE0004BD0102851D149E0302849D040284CD15D
:101FF00039E060282DD0702807D0B0F5805F03D07D
:10200000B0F5005F41D10DE041E0D5E902136A6807
:10201000206800F006FF2068866846F07706206892
:10202000866034E0D5E902136A68206800F0F9FEA2
:102030002068806840F480402168886027E0EA6872
:102040006968206800F0DEFF5021206800F0F4FE8F
:102050001DE0EA686968206800F0E7FF60212068F9
:1020600000F0EAFE13E0EA686968206800F0CAFF41
:102070004021206800F0E0FE09E000BF00BF00BF83
:102080002968206800F0D8FE01E0012700BF00BFEA
:10209000012084F83D0000BF002084F83C0000BF10
:1020A000384684E710B586B00446002002900390BD
:1020B0000490059013492068884221D100BF12483E
:1020C000806940F01000104988610846806900F07E
:1020D0001000019000BF00BF40200290022003903A
:1020E000059002A90948FEF701FD00BF08494868AC
:1020F00020F4406040F0E06040F44060486000BF81
:1021000006B010BD00040040001002400010014065
:10211000000001402DE9F04104460D461646002717
:1021200000BF94F83C00012802D10220BDE8F081F4
:10213000012084F83C0000BF36B1042E1BD0082ECD
:1021400031D00C2E5ED145E02946206800F07EFE9D
:102150002068806940F008002168886120688069F3
:1021600020F004002168886120688069296908439B
:102170002168886148E02946206800F09FFE2068B9
:10218000806940F40060216888612068806920F4DB
:1021900080602168886120688069296940EA01209F
:1021A0002168886130E02946206800F0C5FE20687B
:1021B000C06940F008002168C8612068C06920F04B
:1021C00004002168C8612068C06929690843216842
:1021D000C86119E02946206800F0EAFE2068C0695D
:1021E00040F400602168C8612068C06920F4806004
:1021F0002168C8612068C069296940EA0120216816
:10220000C86101E0012700BF00BF00BF002084F8C3
:102210003C0000BF384689E710B504460CB90120E0
:1022200010BD94F83D0028B9002084F83C002046F9
:1022300000F025F8022084F83D00211D206800F000
:1022400091FD012084F8460000BF84F83E00012182
:102250003F200155402001554120015500BF00BFDE
:10226000012084F8420043200155442001554520B7
:10227000015500BF012084F83D000020D0E77047E1
:1022800070B504460D4615B994F83E000BE0042DD8
:1022900002D13F20005D06E0082D02D14020005D04
:1022A00001E04120005D012801D0012070BD1DB971
:1022B000022084F83E000EE0042D03D102213F20CD
:1022C000015508E0082D03D102214020015502E00C
:1022D00002214120015501222946206800F090FD8D
:1022E0001F492068884203D01E492068884201D1D6
:1022F000012000E0002028B12068406C40F400403C
:102300002168486416492068884213D0154920681E
:1023100088420FD02068B0F1804F0BD0124920685E
:10232000884207D011492068884203D010492068AC
:1023300088420CD12068806800F00706062E0CD079
:102340002068006840F001002168086005E020680E
:10235000006840F00100216808600020A6E7000046
:10236000002C0140003401400004004000080040FF
:10237000000C004010B504460CB9012010BDA06946
:1023800000B100E000BF94F8410028B9002084F8B3
:102390004000204600F02AF8242084F841002068FC
:1023A000C06820F400502168C860204600F052FE4A
:1023B0002068006920F49040216808612068406925
:1023C00020F02A00216848612068C06840F400506D
:1023D0002168C86000206064202084F8410084F8EF
:1023E00042000020606300BFC8E7000010B586B05F
:1023F0000446002002900390049005901A4920683A
:1024000088422ED100BF1948806940F480401749A6
:1024100088610846806900F48040019000BF00BFD9
:1024200000BF0846806940F0040088610846806962
:1024300000F00400019000BF00BF48150290022088
:1024400003900320059002A90948FEF74FFB4FF4C3
:102450008060029000200390049002A90448FEF7D7
:1024600045FB06B010BD00000038014000100240DE
:10247000000801402DE9F84F04460E4617469946DC
:102480004FF0000A94F8410020284AD106B117B94C
:102490000120BDE8F88F00206064212084F841000D
:1024A000FEF7D2FC8246A784E784A068B0F5805F7F
:1024B00004D1206910B90025B04602E035464FF03E
:1024C00000081BE05346002280212046CDF80090F2
:1024D00000F03EFE08B10320DBE745B9B8F8000084
:1024E000C0F308002168486008F1020803E028787A
:1024F000216848606D1CE08C401EE084E08C002860
:10250000E0D15346002240212046CDF8009000F053
:102510001FFE08B10320BCE7202084F84100002002
:10252000B7E70220B5E700BFFEE70146086840694B
:10253000C0F38020B0B16FF480600A685061002061
:102540000863202081F83D00002081F83E00086CDF
:1025500040F00400086400BF002081F83C0000BF88
:10256000012070470020FCE72DE9F84304460D46A2
:1025700090461E46E76A2068006840F48060216843
:102580000860082F04D0012F02D017F5803F06D134
:102590002068006840F480702168086008E0206BC3
:1025A000112805D12068006840F480702168086017
:1025B000434600224FF001112046009600F003F937
:1025C00060B12068006800F48070B0F5807F02D1AF
:1025D0004FF4007020640320BDE8F8832069B0F553
:1025E000804F05D1E8B240F001002168086149E060
:1025F00005F44070F02141EAE0102168086133469B
:1026000042462649204600F03DF908B10120E3E7A3
:10261000E8B221680861334642462049891F2046B6
:1026200000F030F908B10120D6E700BF002000908B
:1026300020684069009020688069009000BF00BF5A
:102640002068006840F480702168086043460022DA
:102650004FF001112046009600F0B5F858B12068FF
:10266000006800F48070B0F5807F02D14FF40070F4
:1026700020640320B0E705F44070F12141EAE01046
:1026800021680861334642460449891F204600F00C
:10269000F9F808B101209FE700209DE7080001003C
:1026A0002DE9F84304460D4617469846E66A082E7B
:1026B00004D0012E02D016F5803F06D120680068B4
:1026C00040F480702168086008E0206B122805D172
:1026D0002068006840F48070216808603B46002252
:1026E0004FF001112046CDF8008000F06CF860B189
:1026F0002068006800F48070B0F5807F02D14FF44C
:10270000007020640320BDE8F8832069B0F5804F95
:1027100004D105F0FE002168086112E005F4407064
:10272000F02141EAE0102168086143463A460B492E
:10273000204600F0A7F808B10120E4E7E8B22168DC
:10274000086143463A460549891F204600F09AF839
:1027500008B10120D7E70020D5E7000008000100FC
:1027600070B504460D46164625E02046FFF7DDFE0F
:1027700008B1012070BD681CE8B1FEF765FB801B45
:10278000A84200D8BDB920684069C0F3800090B964
:1027900000202063202084F83D00002084F83E00C3
:1027A000206C40F02000206400BF002084F83C0032
:1027B00000BF0120DEE720684069C0F380000028E8
:1027C000D3D00020D6E72DE9F04104460D46174648
:1027D0001E46DDF8188038E0701CA8B3FEF734FB05
:1027E000A0EB0800B04200D876BBC5F30740012833
:1027F0000AD120684069A9B20840A9B2884201D133
:1028000001200BE0002009E020688069A9B208409F
:10281000A9B2884201D1012000E00020B84214D1C1
:1028200000202063202084F83D00002084F83E0032
:10283000206C40F02000206400BF002084F83C00A1
:1028400000BF0120BDE8F081FFE7C5F30740012884
:102850000AD120684069A9B20840A9B2884201D1D2
:1028600001200BE0002009E020688069A9B208403F
:10287000A9B2884201D1012000E00020B842ABD0CB
:102880000020DFE72DE9F04104460D4616461F46BD
:1028900058E020684069C0F38020E8B120680068F3
:1028A00040F40070216808606FF48060216848611E
:1028B00000202063202084F83D00002084F83E00A2
:1028C000206C40F00400206400BF002084F83C002D
:1028D00000BF0120BDE8F081701C90B3FEF7B4FA90
:1028E000C01BB04200D866BBC5F3074001280AD11F
:1028F00020684069A9B20840A9B2884201D10120EC
:102900000BE0002009E020688069A9B20840A9B264
:10291000884201D1012000E0002090B9002020630E
:10292000202084F83D00002084F83E00206C40F018
:102930002000206400BF002084F83C0000BF01207C
:10294000C8E7FFE7C5F3074001280AD120684069BE
:10295000A9B20840A9B2884201D101200BE00020B1
:1029600009E020688069A9B20840A9B2884201D173
:10297000012000E0002000288BD00020AAE770B5DD
:1029800004460D46164637E020684069C0F3001043
:10299000A0B16FF010002168486100202063202062
:1029A00084F83D00002084F83E00206C206400BFC5
:1029B000002084F83C0000BF012070BDFEF744FAFF
:1029C000801BA84200D8BDB920684069C0F38010C0
:1029D00090B900202063202084F83D00002084F876
:1029E0003E00206C40F02000206400BF002084F8EE
:1029F0003C0000BF0120E0E720684069C0F3801080
:102A00000028C1D00020D8E770B504460D46164610
:102A100025E02046FFF789FD08B1012070BD681C44
:102A2000E8B1FEF711FA801BA84200D8BDB92068B2
:102A30004069C0F3C01090B900202063202084F8C2
:102A40003D00002084F83E00206C40F0200020640F
:102A500000BF002084F83C0000BF0120DEE72068B2
:102A60004069C0F3C0100028D3D00020D6E7000092
:102A700000B585B00020019002900390049000BF43
:102A80004248806940F020004049886108468069DA
:102A900000F02000009000BF00BF00BF0846806922
:102AA00040F0040088610846806900F0040000904E
:102AB00000BF00BF00BF0846806940F01000886179
:102AC0000846806900F01000009000BF00BF00BF02
:102AD0000846806940F0080088610846806900F077
:102AE0000800009000BF00BF002210212848FEF718
:102AF000A5F900224FF4A4512648FEF79FF91020B3
:102B0000019001200290002003900220049001A96E
:102B10001F48FDF7EBFF802001900120029000206C
:102B200003900220049001A91A48FDF7DFFF4FF43B
:102B300080700190002002900120039001A91548A7
:102B4000FDF7D4FF4FF480700190022002900490B2
:102B500001A90F48FDF7CAFF4FF4A05001900120D2
:102B60000290002003900320049001A90948FDF77A
:102B7000BDFF4FF40060019000200290039001A976
:102B80000448FDF7B3FF05B000BD0000001002408F
:102B9000000801400010014010B50B480B490860C7
:102BA0000B484860002109488160C1604FF48041B2
:102BB0000161002141618161C1610162FEF74AF951
:102BC00008B1FDF77BFF10BD00540040500000200D
:102BD000A086010000B58DB0002009900A900B90EE
:102BE0000C90079008901C216846FDF7CBFB20480D
:102BF000204908604720486000211E48816040F25B
:102C0000E731C160002101618161FFF779F908B105
:102C1000FDF754FF4FF48050099009A91548FFF7BC
:102C2000BBF908B1FDF74AFF1248FFF7F5FA08B102
:102C3000FDF744FF00200790089007A90D48FFF713
:102C400011F908B1FDF73AFF6020009000200190D3
:102C500002900490002269460648FFF75BFA08B12B
:102C6000FDF72CFF0348FFF71DFA0DB000BD000073
:102C700000040040A400002010B50B480B49086078
:102C80004FF4E1304860002108488160C160016173
:102C90000C21416100218161C161FFF76BFB08B12B
:102CA000FDF70CFF10BD000000380140EC000020D3
:102CB00000BFFEE700BFFEE77047000008B5084907
:102CC0000968C9084FF47A72B1FBF2F141430091EF
:102CD00000BF00BF00994A1E00920029F9D108BD2B
:102CE00048000020704710B5FEF744FC10BD00B549
:102CF0008FB0282105A8FDF745FB14216846FDF794
:102D000041FB01200590000406900020079001205F
:102D1000099002200C90C1030D914FF4E0110E9127
:102D200005A8FEF753FE08B1FDF7C8FE0F2000907E
:102D300002200190002002904FF480600390002058
:102D4000049002216846FEF7E7FC08B1FDF7B6FEE5
:102D500000224FF0E0611046FEF706FE0FB000BD06
:102D60007047000010B50268204B98420ED0204BEF
:102D700098420BD0B0F1804F08D01E4B984205D03E
:102D80001D4B984202D01D4B984203D122F0700295
:102D90004B681A43154B98420ED0154B98420BD0F6
:102DA000B0F1804F08D0134B984205D0124B984297
:102DB00002D0124B984203D122F44072CB681A43DE
:102DC00022F080034C6943EA040202608B68C3620C
:102DD0000B688362054B984202D0054B984201D1A3
:102DE0000B6903630123436110BD0000002C014007
:102DF000003401400004004000080040000C004086
:102E000030B501F01F05012404FA05F3046A9C4360
:102E10000462046A01F01F0502FA05F52C430462FE
:102E200030BD30B50C46816821F47F4142EA03256C
:102E300025432943816030BD0A46816821F0700135
:102E400042F00703194381607047000030B5026A01
:102E5000056A25F0010505624368846924F0700461
:102E600024F003040D682C4322F002028D682A43EB
:102E7000104DA84200D103E00F4DA84206D100BF7B
:102E800022F00802CD682A4322F00402094DA8422C
:102E900002D0094DA84207D123F4807323F40073B4
:102EA0004D692B438D692B43436084614D684563B5
:102EB000026230BD002C01400034014030B5026A8E
:102EC000056A25F0100505624368846924F4E0442E
:102ED00024F440740D6844EA052422F020028D6831
:102EE00042EA0512124DA84200D103E0114DA8425A
:102EF00007D100BF22F08002CD6842EA051222F01D
:102F000040020B4DA84202D00A4DA84209D123F439
:102F1000806323F400634D6943EA85038D6943EAC6
:102F20008503436084614D688563026230BD0000A3
:102F3000002C01400034014030B5026A056A25F4D6
:102F4000807505624368C46924F0700424F00304AA
:102F50000D682C4322F400728D6842EA0522124D5E
:102F6000A84200D103E0114DA84207D100BF22F4CE
:102F70000062CD6842EA052222F480620A4DA8422E
:102F800002D00A4DA84209D123F4805323F4005300
:102F90004D6943EA05138D6943EA05134360C46133
:102FA0004D68C563026230BD002C01400034014011
:102FB00030B5036A056A25F4805505624468C26924
:102FC00022F4E04222F440720D6842EA052223F422
:102FD00000538D6843EA0533084DA84202D0084DDE
:102FE000A84204D124F480444D6944EA8514446025
:102FF000C2614D680564036230BD0000002C0140D1
:103000000034014030B50B461446026A056A25F0CB
:1030100001050562816921F0F00141EA041122F005
:103020000A021A438161026230BD30B50B46144674
:10303000026A056A25F010050562816921F4704174
:1030400041EA043122F0A00242EA031281610262E5
:1030500030BD000070B504462168096921F4405173
:10306000E2681143226811612269A1681143626913
:1030700041EA02052168C96841F20C629143294383
:103080002268D1602168496921F44071A269114325
:10309000226851612D4A2168914202D1FEF71AFC43
:1030A00001E0FEF707FC00EBC00101EB00116268D4
:1030B0009200B1FBF2F100EBC00202EB0012636878
:1030C0009B00B2FBF3F26423B2FBF3F202EBC20308
:1030D00003EB0212A1EB8201322202EB0111642206
:1030E000B1FBF2F101F0F00100EBC00202EB0012C3
:1030F00063689B00B2FBF3F26423B2FBF3F201EBD3
:10310000021200EBC00101EB001163689B00B1FBF0
:10311000F3F100EBC00303EB00136668B600B3FBEA
:10312000F6F36426B3FBF6F303EBC30606EB0313D7
:10313000A1EB8301322303EB01116423B1FBF3F113
:1031400001F00F0111442268916070BD0038014008
:103150002DE9F04104460D4617469846069E34E098
:10316000701C88B32EB1FDF76FFEA0EB0800B042D3
:103170002BD900BF00BF21680C3151E8001F21F49A
:10318000D07021680C3141E80002002AF3D100BF61
:1031900000BF00BF2168143151E8001F21F0010079
:1031A0002168143141E80002002AF3D100BF202039
:1031B00084F8410084F8420000BF002084F84000F9
:1031C00000BF0320BDE8F081FFE7206800682840C9
:1031D000A84201D1012000E00020B842C0D0002068
:1031E000F0E710B5FDF766F910BD00BFFEE700007F
:1031F00002480068C0F30220704700000CED00E0B8
:1032000010B5002804DB0A07130E054A135406E024
:103210000A07140E034A00F00F031B1FD45410BDFD
:1032200000E400E018ED00E008B500208DF8000093
:103230008DF80100684600F023F89DF80100812810
:1032400003D09DF80100012801D1012008BD002014
:10325000FCE7000010B58AB0282208497944684686
:10326000FDF74BF8002405E0694601EB440000F04F
:1032700023F8641C142CF7DB0AB010BD881400007E
:1032800038B50446207840F0800020704FF47A7002
:1032900001232246CA2100900648FEF779F84FF430
:1032A0007A700123621CCA2100900248FDF7BAFE21
:1032B00038BD00005000002038B50446207840F0AA
:1032C000800020704FF47A7002232246CA210090B9
:1032D0000148FEF75DF838BD500000209CB0FEF7B5
:1032E00055F9FFF704FDFFF7C3FBFFF755FCFFF7A8
:1032F000C3FCFFF76FFC4FF47A70FDF7E3FB00F0BF
:1033000037FFFDF7B9FB0021F848FEF7B9FF0122AE
:103310000021084600F06CFB002211462520FEF734
:10332000A9F92520FEF796F9F1480068C06840F039
:103330002000EF490968C860D6E2EE48007801280D
:1033400011D10020EB490870EB48007801280BD11F
:1033500000221146104600F04BFB64232822E7A10F
:10336000E348FFF787F8AEE0E348007802280BD186
:1033700001220021084600F03BFB64232A22EAA137
:10338000DB48FFF777F89EE0DB480078102818D17B
:10339000F048007800F00104EF48007800F00105E3
:1033A000EE48007800F0010632462946204600F03B
:1033B0001FFB64231F22EA497944CD48FFF75AF8DE
:1033C00081E0CD480078112818D1E648007800F057
:1033D00001000090E448007800F00103E34802880F
:1033E000E3480188E348008800F02CFB6423222294
:1033F000E1497944BE48FFF73DF864E0BE480078F3
:1034000012281BD1D748007800F00100D64909786E
:1034100001F00101CDE90010D8480368D3480288C3
:10342000D3480188D348008800F0F9FD642327229F
:10343000D3497944AE48FFF71DF844E0AE48007820
:10344000132827D1C748007800F00100C649097841
:1034500001F00101CB4A1288CB4B1B88CDE9023227
:10346000CDE90410C9480088C9490988CDE9001090
:10347000C2480368BD480288BD480188BD4800882D
:1034800000F0B4FD64232222C24979449848FEF733
:10349000F1FF18E098480078032808D1FDF7E0FA1A
:1034A00064231722BCA19248FEF7E4FF0BE0924888
:1034B0000078042807D1FDF7DFFA64231622BCA1A7
:1034C0008B48FEF7D7FF00F033FA30B3BE480078E0
:1034D000F8B940F6B830FDF7F5FA00F03BFABBA1B9
:1034E00003C9CDE91A01642007231AAA34210090E8
:1034F000B848FDF74DFFFDF7A7FCB749086032203B
:10350000FDF7E0FA64233F22B4A17948FEF7B2FF49
:1035100000BF0120AC49087002E00020AA490870F1
:10352000A948007801287DD1FDF78EFCAA490968D9
:10353000401A4EF63411B0FBF1F201FB12004DF2CD
:10354000D861884205D84FF47A70684909684863A1
:1035500018E0FDF779FCA0490968401A4EF63411CD
:10356000B0FBF1F201FB12004EF66C01884204D868
:1035700064205E490968486304E04FF47A705B494F
:10358000096848633220FDF79DFAFDF75DFC92491A
:103590000968401A4FF4FA61B0FBF1F201FB120026
:1035A00094490860944800680968884203D901205A
:1035B0009249087002E00020904908708D48006828
:1035C0008D4908608D48007800287DD08CA103C902
:1035D000CDE91A01642007231AAA342100907D48FE
:1035E000FDF7D6FE0020179018901990642100F086
:1035F0003BFE64200B2317AA342100907548FDF789
:1036000011FD0020149015901690642100F02CFEFE
:1036100064200B2314AA342100906E48FDF702FDAC
:10362000002000E060E1119012901390642100F0FE
:103630001BFE64200B2311AA342100906548FDF77E
:10364000F1FC00200E900F90109064200C230EAA25
:10365000342100905F48FDF7E5FC00200B900C90B2
:103660000D90642100F000FE64200B230BAA34218E
:1036700000905848FDF7D6FC0020089009900A9069
:1036800064200C2308AA342100905248FDF7CAFC9C
:103690000020059006900790642100F0E5FD64206D
:1036A0000B2305AA342100904A48FDF7BBFC0020FB
:1036B00002900390049064200B2302AA342100900E
:1036C0004448FDF7AFFC00E00BE164230A224EA161
:1036D0000748FEF7CFFE9DF8510030B9642304225D
:1036E0004CA10348FEF7C6FE9EE097E0A400002030
:1036F000EC00002008000020090000205B4D43552D
:103700005D2053776974636820746F20436F6C6F1A
:1037100072426172204F4B2028313932302F64754C
:10372000616C290A000000005B4D43555D20537712
:103730006974636820746F20436865636B426F61CE
:103740007264204F4B2028313932302F6475616C00
:10375000290A00000A0000200B0000200C000020B5
:10376000F00E0000210000202000002012000020A8
:10377000100000200E000020D60E000014000020D3
:10378000B90E00001E0000201C0000201A000020BE
:1037900018000020890E00005B4D43555D204261FA
:1037A000636B6C69676874204F4646204F4B0A0074
:1037B0005B4D43555D204261636B6C6967687420A3
:1037C0004F4E204F4B0A0000220000201A0000003C
:1037D00000001A0050000020240000205F5F5F5F9F
:1037E0005F4E45575F4445564943455F5F5F5F5FA6
:1037F0000A0000002C0000202800002030000020DB
:10380000810000000000810073746174653A20201B
:10381000202000004F4B210A0000000064230622F4
:1038200032A13448FEF726FE64230D2232A131482E
:10383000FEF720FE9DF855000A2190FBF1F0303094
:10384000C0B28DF804009DF8550090FBF1F201FB29
:1038500012003030C0B28DF805006423022201A9A5
:103860002448FEF707FE64230122AFF27C012148C1
:10387000FEF700FE6423122223A11E48FEF7FAFD84
:10388000642308220DF145011A48FEF7F3FD642375
:1038900009220DF139011748FEF7ECFD64230122DE
:1038A000AFF2B4011348FEF7E5FD642312221BA119
:1038B0001048FEF7DFFD642308220DF12D010D48AD
:1038C000FEF7D8FD642309220DF121010948FEF716
:1038D000D1FD64230122AFF2E8010648FEF7CAFDDC
:1038E00000BF6420FDF7EEF827E500004641494C93
:1038F000210A0000EC00002054656D70657261744F
:103900007572653A20000000736F667477617265A6
:103910002076657273696F6E3A2000006861726488
:10392000776172652076657273696F6E3A20000068
:1039300008B50D20ADF8000000208DF802006846A3
:1039400000F020F89DF80200822801D1012008BD76
:103950000020FCE710B5002408E02146621CD4B228
:10396000074A7A4402EB810000F02AF804487844C0
:103970000C3830F824004FF6FF718842EDD110BDAD
:10398000FE0900001CB5044660788DF8040020781C
:103990008DF805004FF47A70022301AA502100909F
:1039A0000648FDF7F5FC4FF47A700123A21C502164
:1039B00000900248FDF736FB1CBD000050000020BF
:1039C0001CB5044660788DF8040020788DF8050059
:1039D000A0788DF806004FF47A70032301AA5021D5
:1039E00000900248FDF7D4FC1CBD000050000020F0
:1039F0002DE9F0410546884614460026002745B9C2
:103A00001CB90C4E7E4426270BE00B4E7E442E271D
:103A100007E01CB9094E7E44262702E0084E7E448A
:103A20002E272EB1002F03DD3946304600F076FBFD
:103A3000BDE8F081A0090000300A0000DE0A0000A5
:103A40006E0B00002DE9FC4105460E4617461C464C
:103A5000DDF82080044B3A4631462846CDE900483F
:103A600000F004F8BDE8FC81805CD7052DE9F04F3B
:103A70008FB004460E4617469A46199800F001008A
:103A80000D900D9808B12E2000E026200C90B4F582
:103A9000A07F07D3B4F5805F04D2C82E02D3B6F559
:103AA000076F02D90FB0BDE8F08FB7F5967F02D34C
:103AB000B7F5966F00D9F5E7A948824502D3A94822
:103AC000824500D9EEE70D9810B1A748784401E08F
:103AD000A648784405460C9882002946A448FCF77D
:103AE0000CFC0AEB8A004000B0FBF7F906EBD600AD
:103AF00000F11E0806F11400804500D28046B9FB93
:103B0000F8F504F13000854209D20546B9FBF5F815
:103B100006F11400804500D28046B9FBF8F5281B59
:103B20000B900B98182807D20B98C0F11800054489
:103B3000281B0B90B9FBF5F805EB450080004FF40E
:103B40005C71B0FBF1F01FFA80FBBBF1080F01D2F2
:103B50004FF0080B0BF10800A84201D3C5F34F0B3F
:103B6000A5EB0B0080B20A905B464FF4EB728048E5
:103B70000C9900F040FB4FF4EC727D480A9B0C99C5
:103B800000F039FB234640F2DF1279480C9900F02F
:103B900032FB0B9883B240F2E11275480C9900F0A9
:103BA0002AFB334640F2E31271480C9900F023FBE4
:103BB0004FF4DC600A906F48099041F2B4400890DD
:103BC00040F20D20A0FB0710CDE902104FF4DC609D
:103BD000A0FB08234FF416710020A2FB01CB03FBCE
:103BE00001B102FB0010CDE900C0604601A90EC979
:103BF000FCF70CFB079040F20D20A0FB0710CDE96D
:103C000002105C48A0FB08214FF416734FF0000C23
:103C1000A2FB030B01FB03B102FB0C11CDE9000178
:103C2000DDE90223FCF7F2FA06905348A0FB0701F6
:103C3000CDE9020141F2B440A0FB08210020A2FB23
:103C4000043C01FB04C102FB00124FF41671A3FBFC
:103C500001CB02FB01B103FB0010CDE900C06046BF
:103C600001A90EC9FCF7D2FA059040F20D20A0FB85
:103C70000710CDE9021040F2ED10A0FB08124FF43E
:103C800016734FF0000CA1FB030B02FB03B201FB08
:103C90000C21CDE90001DDE90223FCF7B7FA04901D
:103CA00040F2CD123248079B0C9900F0B9FA4FF45C
:103CB000E8722F48069B0C9900F0B2FA4FF4EE72AE
:103CC0002B48059B0C9900F0ABFA0498B0F5803FA7
:103CD00002D34FF6FF7000E0049883B24FF4ED7208
:103CE00023480C9900F087FA0D9890B300252CE03A
:103CF0001F4830F82500B0F5F37F24D91C4830F870
:103D00002500B0F5F87F1ED2194800EB8500C07879
:103D1000FF2818D1164800EB85008078A0FB0680AC
:103D200001464FF4F07200234046FCF76FFA8346D9
:103D3000BBF1FF0F01D94FF0FF0B0D4901EB8501DE
:103D400081F802B000BF681CC5B20C988542CFDB79
:103D500000BF07480C9900F0E1F900BFA2E600009F
:103D600040420F0000C2EB0BC00A0000220A000014
:103D700054010020D0970600A06806002DE9F04FFE
:103D80008BB006460C4691469A46169F199800F04D
:103D900001000A900A9808B12E2000E02620099020
:103DA000B6F5A07F07D3B6F5805F04D2C82C02D346
:103DB000B4F5076F02D90BB0BDE8F08FB9F5967F67
:103DC00002D3B9F5966F00D9F5E78348824502D34F
:103DD0008248824500D9EEE71498B0F5805F0AD298
:103DE0001598B0F5805F06D2B7F5805F03D21798BB
:103DF000B0F5805F00D3DEE70A9810B178487844C8
:103E000001E07848784405460998820029467648BA
:103E1000FCF773FA0AEB8A004000B0FBF9F0089057
:103E2000DDE91401084407900798351817983844BD
:103E300006900698204400F101084FEA551B0798A8
:103E4000082801D2082007900798351806980228FC
:103E500001D2022006900698204400F1010805FBDB
:103E600008F00899884206D90898B0FBF5F8E01CDC
:103E7000804500D28046BBF1080F01D24FF0080BFD
:103E8000AB4501D34FEA550BA5EB0B000590B8F5F8
:103E9000803F02D34FF6FF7000E040460490002FB1
:103EA00001DD384600E0012000FB0BF00390002FFD
:103EB00001DD384600E00120404507D2002F01DD3A
:103EC000384600E00120A8EB000000E00120059941
:103ED00048430290159807FB050001901FFA8BF3E9
:103EE0004FF4EB724048099900F085F9059883B2C8
:103EF0004FF4EC723C48099900F07DF9049883B2C4
:103F00004FF4ED723848099900F075F940F2CD127E
:103F10003548039B099900F083F94FF4E872324861
:103F2000029B099900F07CF94FF4EE722E48019B38
:103F3000099900F075F9334640F2DF122A480999D1
:103F400000F059F9079883B240F2E1122648099926
:103F500000F051F9234640F2E3122348099900F09A
:103F60004AF90A9888B300252CE01F4830F825004C
:103F7000B0F5F37F24D91C4830F82500B0F5F87F60
:103F80001ED2194800EB8500C078FF2818D11648CA
:103F900000EB85008078A0FB04B001464FF4F0727E
:103FA00000235846FCF732F98046B8F1FF0F01D9DB
:103FB0004FF0FF080C4901EB850181F8028000BF3A
:103FC000681CC5B209988542CFDB0748099900F003
:103FD000A5F800BFEFE6000040420F0000C2EB0B67
:103FE0008E070000F00600000C0200202DE9FF4FB4
:103FF00087B004460D46164615AF97E8800FCDE909
:1040000004ABCDE902891498CDE900073246294670
:1040100020460A9BFFF7B2FE0BB0BDE8F08F2DE9FA
:10402000FC4704460D4616461F46DDE90A893B4615
:10403000324629462046CDE90089FFF717FDBDE845
:10404000FC8708B50D20ADF8000000208DF80200B7
:10405000684600F02DF89DF802009B2801D1012050
:1040600008BD0020FCE7000010B5012291020348C2
:10407000FCF7E4FE3220FCF725FD10BD00100140E6
:1040800010B5002408E02146621CD4B2074A7A44E5
:1040900002EB810000F02AF8044878440C3830F82C
:1040A00024004FF6FF718842EDD110BDFA020000E6
:1040B0001CB5044660788DF8040020788DF8050062
:1040C0004FF47A70022301AA802100900648FDF780
:1040D0005FF94FF47A700123A21C802100900248FE
:1040E000FCF7A0FF1CBD0000500000201CB50446DA
:1040F00060788DF8040020788DF80500A0788DF8A0
:1041000006004FF47A70032301AA80210090024830
:10411000FDF73EF91CBD000050000020F8B5054633
:104120000E46002421E035F82400ADF8000005EB30
:104130008400C078FF2804D105EB8400FFF7D6FF88
:1041400011E06846FFF7B4FF9DF8020005EB84011B
:10415000C978884305EB8401897808438DF802000B
:104160006846FFF7C3FF601CC4B2B442DBDBF8BD96
:1041700010B5FCF78BFCFFF777FFFFF762FF28B164
:10418000002010490870FFF77BFF02E001200D4975
:1041900008703220FCF796FCFFF7CAFB28B100201C
:1041A00008494870FFF7D6FB02E001200549487036
:1041B0003220FCF787FCFFF737F808B1FFF74AF821
:1041C00010BD00004C00002030B5044600200EE079
:1041D00034F82050954208D104EB8005ED78FF2D8E
:1041E00003D104EB8005AB7030BD451CE8B28842BA
:1041F000EEDB00BFF8E72DE9F04106460F46154615
:104200001C4623122A4639463046FFF7DDFFE3B24B
:10421000681C82B239463046FFF7D6FFBDE8F08110
:104220002DE9F04106460F4615461C46B4F1807F45
:1042300001D36FF07F44C4F307432A463946304622
:10424000FFF7C2FF681C82B2C4F307233946304629
:10425000FFF7BAFFE3B2A81C82B239463046FFF737
:10426000B3FFBDE8F08100002DE9F04104460D46A2
:10427000FCF7EAFD06464FF480710B48FCF7D6FDCB
:1042800007460CE0FCF7E0FD801BA84201D9BDE821
:10429000F0814FF480710448FCF7C8FD0746A7423F
:1042A000F0D100BFF3E70000001001405B4D435523
:1042B0005D2053637265656E20707265736574204E
:1042C0006170706C696564204F4B0A005B4D43550B
:1042D0005D20437573746F6D2074696D696E67201E
:1042E000284D4158393637353529204F4B0A005B68
:1042F0004D43555D20437573746F6D2074696D690E
:104300006E672B50434C4B20284D4158393637357A
:104310003529204F4B0A005B4D43555D2043757393
:10432000746F6D2074696D696E672B50434C4B2B15
:10433000506F726368204F4B0A00020304050607A2
:1043400008090A0B0C0D0E0F1010010200000000EE
:104350000000000001020304060708090000000035
:10436000010203040200C3001302630012020300EF
:104370001602210017020100150204000D0222009E
:104380000E0202000C020400FFFFFF00D602030031
:10439000D702A200D9020300DA022100D3020400EE
:1043A000D5020300FFFFFF00530000035700010385
:1043B0005B0002035F000303C8010004C801080892
:1043C000C8011010CA0100FFCB0100FFCC0100FFA3
:1043D000CD0100FFCE0110FFCF0100FFD00122FF71
:1043E000D101C8FFD20100FFD30100FFD40100FFBB
:1043F000D50100FFD60100FFD7010CFFD80107FF50
:10440000D901F4FFDA0104FFDB015BFFDC0100FFEF
:10441000DD0138FFDE011CFFDF0107FFE00180FF47
:10442000E10100FFE20180FFE30104FFE40138FF46
:10443000E5010203E60102FF07000101C801E3E311
:1044400053000003570001035B0002035F000303F6
:10445000C8010004C8010808C8011010CA0100FF03
:10446000CB0100FFCC0100FFCD0100FFCE0110FF0A
:10447000CF0100FFD00122FFD101C8FFD20100FF10
:10448000D30100FFD40100FFD50100FFD60100FFDA
:10449000D7010CFFD80107FFD901F4FFDA0104FFAF
:1044A000DB015BFFDC0100FFDD0128FFDE0110FF07
:1044B000DF0107FFE00180FFE10100FFE20180FF73
:1044C000E30104FFE40138FFE5010103E701FFFF19
:1044D000E801FFFFE901FFFFEA0100FFEB0100FF38
:1044E000EC0100FFED01F0FFEE01F0FFEF0178FFBE
:1044F00007000101C801E3E3530000035700010373
:104500005B0002035F000303C8010004C801080840
:10451000C8011010CA0100FFCB0100FFCC0100FF51
:10452000CD0100FFCE0106FFCF01E0FFD00106FF65
:10453000D10197FFD201D0FFD30100FFD40100FFCA
:10454000D50100FFD60100FFD7010CFFD80103FF02
:10455000D90164FFDA0101FFDB01EDFFDC0100FF9F
:10456000DD0114FFDE01B4FFDF0103FFE00120FFE6
:10457000E10100FFE20150FFE30101FFE401E0FF80
:10458000E5010203E60104FF07000101C801E3E3BE
:1045900053000003570001035B0002035F000303A5
:1045A000C8010004C8010808C8011010CA0100FFB2
:1045B000CB0100FFCC0100FFCD0100FFCE0106FFC3
:1045C000CF01E0FFD00106FFD10197FFD201D0FF5C
:1045D000D30100FFD40100FFD50100FFD60100FF89
:1045E000D7010CFFD80103FFD90164FFDA0101FFF5
:1045F000DB01EDFFDC0100FFDD0114FFDE01B4FF94
:10460000DF0103FFE00120FFE10100FFE20150FFB5
:10461000E30101FFE401E0FFE5010103E701FFFF22
:10462000E801FFFFE901FFFFEA0100FFEB0100FFE6
:10463000EC0100FFED01F0FFEE01F0FFEF0178FF6C
:1046400007000101C801E3E302B4030104020550BD
:104650001000110012001300146D1502160017004F
:1046600018BF19A01A031B0A1CBF1DA01E031F0898
:10467000023403010402055010001100120013005F
:1046800014ED150216001700186619091A931B2C51
:104690001C661D091E931F2C02B403020402055060
:1046A0001000110012001300146D150216001700FF
:1046B00018E5198C1AC31B8B1CE51D8C1EC31F88A3
:1046C00002B403010402055010001100120013008F
:1046D000146D150216001700189919031A321B6879
:1046E0001C991D031E321F6802B403020402055008
:1046F0001000110012001300146D150216001700AF
:1047000018F519051AA31BEB1CF51D051EA31FE8C0
:104710003047000800000020500000006C01000835
:104720008047000850000020D808000088010008D9
:104730008877665544332211000000000000000015
:104740000000000000000000000000000000000069
:104750000000000000000000000000000000000059
:104760000100000000000000000000000000000048
:1047700010000000010000000024F4000000000010
:0400000508000131BD
:00000001FF
